{
  "_format": "hh-sol-artifact-1",
  "contractName": "Election",
  "sourceName": "contracts/Election.sol",
  "abi": [
    {
      "inputs": [],
      "stateMutability": "nonpayable",
      "type": "constructor"
    },
    {
      "anonymous": false,
      "inputs": [
        {
          "indexed": false,
          "internalType": "uint256",
          "name": "partyId",
          "type": "uint256"
        },
        {
          "indexed": false,
          "internalType": "string",
          "name": "partyName",
          "type": "string"
        }
      ],
      "name": "PartyAdded",
      "type": "event"
    },
    {
      "anonymous": false,
      "inputs": [
        {
          "indexed": false,
          "internalType": "uint256",
          "name": "stateId",
          "type": "uint256"
        },
        {
          "indexed": false,
          "internalType": "string",
          "name": "stateName",
          "type": "string"
        }
      ],
      "name": "StateAdded",
      "type": "event"
    },
    {
      "anonymous": false,
      "inputs": [
        {
          "indexed": false,
          "internalType": "string",
          "name": "voterId",
          "type": "string"
        },
        {
          "indexed": false,
          "internalType": "uint256",
          "name": "stateId",
          "type": "uint256"
        },
        {
          "indexed": false,
          "internalType": "uint256",
          "name": "partyId",
          "type": "uint256"
        }
      ],
      "name": "VoteCast",
      "type": "event"
    },
    {
      "anonymous": false,
      "inputs": [
        {
          "indexed": false,
          "internalType": "uint256",
          "name": "startTime",
          "type": "uint256"
        },
        {
          "indexed": false,
          "internalType": "uint256",
          "name": "endTime",
          "type": "uint256"
        }
      ],
      "name": "VotingTimesSet",
      "type": "event"
    },
    {
      "inputs": [
        {
          "internalType": "string",
          "name": "_name",
          "type": "string"
        },
        {
          "internalType": "string",
          "name": "_symbol",
          "type": "string"
        },
        {
          "internalType": "uint256",
          "name": "_partyId",
          "type": "uint256"
        }
      ],
      "name": "addParty",
      "outputs": [],
      "stateMutability": "nonpayable",
      "type": "function"
    },
    {
      "inputs": [
        {
          "internalType": "string",
          "name": "_stateName",
          "type": "string"
        },
        {
          "internalType": "uint256",
          "name": "_stateId",
          "type": "uint256"
        }
      ],
      "name": "addState",
      "outputs": [],
      "stateMutability": "nonpayable",
      "type": "function"
    },
    {
      "inputs": [
        {
          "internalType": "uint256",
          "name": "_partyId",
          "type": "uint256"
        }
      ],
      "name": "deleteParty",
      "outputs": [],
      "stateMutability": "nonpayable",
      "type": "function"
    },
    {
      "inputs": [
        {
          "internalType": "uint256",
          "name": "_stateId",
          "type": "uint256"
        }
      ],
      "name": "deleteState",
      "outputs": [],
      "stateMutability": "nonpayable",
      "type": "function"
    },
    {
      "inputs": [],
      "name": "electionAdmin",
      "outputs": [
        {
          "internalType": "address",
          "name": "",
          "type": "address"
        }
      ],
      "stateMutability": "view",
      "type": "function"
    },
    {
      "inputs": [
        {
          "internalType": "string",
          "name": "_hashedFaydaId",
          "type": "string"
        }
      ],
      "name": "getAllData",
      "outputs": [
        {
          "components": [
            {
              "internalType": "string",
              "name": "stateName",
              "type": "string"
            },
            {
              "internalType": "uint256",
              "name": "stateId",
              "type": "uint256"
            }
          ],
          "internalType": "struct Election.State[]",
          "name": "",
          "type": "tuple[]"
        },
        {
          "components": [
            {
              "internalType": "string",
              "name": "partyName",
              "type": "string"
            },
            {
              "internalType": "string",
              "name": "symbol",
              "type": "string"
            },
            {
              "internalType": "uint256",
              "name": "partyId",
              "type": "uint256"
            },
            {
              "internalType": "uint256",
              "name": "totalVoteCount",
              "type": "uint256"
            },
            {
              "components": [
                {
                  "internalType": "uint256",
                  "name": "stateId",
                  "type": "uint256"
                },
                {
                  "internalType": "uint256",
                  "name": "votes",
                  "type": "uint256"
                }
              ],
              "internalType": "struct Election.StateVote[]",
              "name": "stateVotes",
              "type": "tuple[]"
            }
          ],
          "internalType": "struct Election.PartyView[]",
          "name": "",
          "type": "tuple[]"
        },
        {
          "internalType": "uint256",
          "name": "",
          "type": "uint256"
        },
        {
          "internalType": "bool",
          "name": "",
          "type": "bool"
        },
        {
          "internalType": "bool",
          "name": "",
          "type": "bool"
        },
        {
          "internalType": "bool",
          "name": "",
          "type": "bool"
        },
        {
          "internalType": "uint256",
          "name": "",
          "type": "uint256"
        },
        {
          "internalType": "uint256",
          "name": "",
          "type": "uint256"
        }
      ],
      "stateMutability": "view",
      "type": "function"
    },
    {
      "inputs": [],
      "name": "getAllParties",
      "outputs": [
        {
          "components": [
            {
              "internalType": "string",
              "name": "partyName",
              "type": "string"
            },
            {
              "internalType": "string",
              "name": "symbol",
              "type": "string"
            },
            {
              "internalType": "uint256",
              "name": "partyId",
              "type": "uint256"
            },
            {
              "internalType": "uint256",
              "name": "totalVoteCount",
              "type": "uint256"
            },
            {
              "components": [
                {
                  "internalType": "uint256",
                  "name": "stateId",
                  "type": "uint256"
                },
                {
                  "internalType": "uint256",
                  "name": "votes",
                  "type": "uint256"
                }
              ],
              "internalType": "struct Election.StateVote[]",
              "name": "stateVotes",
              "type": "tuple[]"
            }
          ],
          "internalType": "struct Election.PartyView[]",
          "name": "",
          "type": "tuple[]"
        }
      ],
      "stateMutability": "view",
      "type": "function"
    },
    {
      "inputs": [],
      "name": "getAllStates",
      "outputs": [
        {
          "components": [
            {
              "internalType": "string",
              "name": "stateName",
              "type": "string"
            },
            {
              "internalType": "uint256",
              "name": "stateId",
              "type": "uint256"
            }
          ],
          "internalType": "struct Election.State[]",
          "name": "",
          "type": "tuple[]"
        }
      ],
      "stateMutability": "view",
      "type": "function"
    },
    {
      "inputs": [
        {
          "internalType": "string",
          "name": "_hashedFaydaId",
          "type": "string"
        }
      ],
      "name": "hasUserVoted",
      "outputs": [
        {
          "internalType": "bool",
          "name": "",
          "type": "bool"
        }
      ],
      "stateMutability": "view",
      "type": "function"
    },
    {
      "inputs": [],
      "name": "isVotingActive",
      "outputs": [
        {
          "internalType": "bool",
          "name": "",
          "type": "bool"
        }
      ],
      "stateMutability": "view",
      "type": "function"
    },
    {
      "inputs": [
        {
          "internalType": "uint256",
          "name": "",
          "type": "uint256"
        }
      ],
      "name": "partyIds",
      "outputs": [
        {
          "internalType": "uint256",
          "name": "",
          "type": "uint256"
        }
      ],
      "stateMutability": "view",
      "type": "function"
    },
    {
      "inputs": [],
      "name": "pauseVoting",
      "outputs": [],
      "stateMutability": "nonpayable",
      "type": "function"
    },
    {
      "inputs": [],
      "name": "resumeVoting",
      "outputs": [],
      "stateMutability": "nonpayable",
      "type": "function"
    },
    {
      "inputs": [
        {
          "internalType": "uint256",
          "name": "_startTime",
          "type": "uint256"
        },
        {
          "internalType": "uint256",
          "name": "_endTime",
          "type": "uint256"
        }
      ],
      "name": "setVotingTimes",
      "outputs": [],
      "stateMutability": "nonpayable",
      "type": "function"
    },
    {
      "inputs": [
        {
          "internalType": "uint256",
          "name": "",
          "type": "uint256"
        }
      ],
      "name": "stateIds",
      "outputs": [
        {
          "internalType": "uint256",
          "name": "",
          "type": "uint256"
        }
      ],
      "stateMutability": "view",
      "type": "function"
    },
    {
      "inputs": [
        {
          "internalType": "uint256",
          "name": "",
          "type": "uint256"
        }
      ],
      "name": "states",
      "outputs": [
        {
          "internalType": "string",
          "name": "stateName",
          "type": "string"
        },
        {
          "internalType": "uint256",
          "name": "stateId",
          "type": "uint256"
        }
      ],
      "stateMutability": "view",
      "type": "function"
    },
    {
      "inputs": [],
      "name": "timeData",
      "outputs": [
        {
          "internalType": "bool",
          "name": "",
          "type": "bool"
        },
        {
          "internalType": "uint256",
          "name": "",
          "type": "uint256"
        },
        {
          "internalType": "uint256",
          "name": "",
          "type": "uint256"
        }
      ],
      "stateMutability": "view",
      "type": "function"
    },
    {
      "inputs": [],
      "name": "totalVotes",
      "outputs": [
        {
          "internalType": "uint256",
          "name": "",
          "type": "uint256"
        }
      ],
      "stateMutability": "view",
      "type": "function"
    },
    {
      "inputs": [
        {
          "internalType": "address",
          "name": "newOwner",
          "type": "address"
        }
      ],
      "name": "transferOwnership",
      "outputs": [],
      "stateMutability": "nonpayable",
      "type": "function"
    },
    {
      "inputs": [
        {
          "internalType": "string",
          "name": "_hashedFaydaId",
          "type": "string"
        },
        {
          "internalType": "uint256",
          "name": "_voterState",
          "type": "uint256"
        },
        {
          "internalType": "uint256",
          "name": "_votedPartyId",
          "type": "uint256"
        }
      ],
      "name": "vote",
      "outputs": [],
      "stateMutability": "nonpayable",
      "type": "function"
    },
    {
      "inputs": [
        {
          "internalType": "string",
          "name": "",
          "type": "string"
        }
      ],
      "name": "voters",
      "outputs": [
        {
          "internalType": "bool",
          "name": "",
          "type": "bool"
        }
      ],
      "stateMutability": "view",
      "type": "function"
    },
    {
      "inputs": [],
      "name": "votingEndTime",
      "outputs": [
        {
          "internalType": "uint256",
          "name": "",
          "type": "uint256"
        }
      ],
      "stateMutability": "view",
      "type": "function"
    },
    {
      "inputs": [],
      "name": "votingPaused",
      "outputs": [
        {
          "internalType": "bool",
          "name": "",
          "type": "bool"
        }
      ],
      "stateMutability": "view",
      "type": "function"
    },
    {
      "inputs": [],
      "name": "votingStartTime",
      "outputs": [
        {
          "internalType": "uint256",
          "name": "",
          "type": "uint256"
        }
      ],
      "stateMutability": "view",
      "type": "function"
    }
  ],
  "bytecode": "0x6080604052348015600f57600080fd5b50336000806101000a81548173ffffffffffffffffffffffffffffffffffffffff021916908373ffffffffffffffffffffffffffffffffffffffff160217905550612ef48061005f6000396000f3fe608060405234801561001057600080fd5b50600436106101585760003560e01c80635c060b79116100c3578063a2d446321161007c578063a2d44632146103bd578063a4ddb071146103ed578063ae66c9ea1461040b578063b867bfcc14610429578063f2fde38b14610447578063f3cdcd1e1461046357610158565b80635c060b791461030857806376290dd2146103245780637afdf93e146103405780637d2e629e1461034a578063939fa32214610366578063a0e439591461039d57610158565b80632019a608116101155780632019a60814610220578063257da3ef1461023e57806337eb39061461026e57806347cf6f761461028a5780634f6c90cf146102a857806353fa2e64146102d857610158565b8063017a91051461015d5780630891d3581461018e5780630aa05677146101aa5780630d15fd77146101c85780630fc49ddd146101e65780631ea736e014610202575b600080fd5b61017760048036038101906101729190611ab2565b61046d565b604051610185929190611b7e565b60405180910390f35b6101a860048036038101906101a39190611ce3565b610519565b005b6101b26107d2565b6040516101bf9190611d93565b60405180910390f35b6101d06107f6565b6040516101dd9190611dae565b60405180910390f35b61020060048036038101906101fb9190611ab2565b6107fc565b005b61020a610972565b6040516102179190611dae565b60405180910390f35b610228610978565b6040516102359190611dae565b60405180910390f35b61025860048036038101906102539190611ab2565b61097e565b6040516102659190611dae565b60405180910390f35b61028860048036038101906102839190611ab2565b6109a2565b005b610292610b38565b60405161029f9190611de4565b60405180910390f35b6102c260048036038101906102bd9190611ab2565b610b53565b6040516102cf9190611dae565b60405180910390f35b6102f260048036038101906102ed9190611dff565b610b77565b6040516102ff9190611de4565b60405180910390f35b610322600480360381019061031d9190611e48565b610bad565b005b61033e60048036038101906103399190611ea4565b610d51565b005b610348610efa565b005b610364600480360381019061035f9190611f2f565b610ff4565b005b610380600480360381019061037b9190611dff565b611151565b6040516103949897969594939291906122eb565b60405180910390f35b6103a56111b2565b6040516103b493929190612377565b60405180910390f35b6103d760048036038101906103d29190611dff565b6111d0565b6040516103e49190611de4565b60405180910390f35b6103f5611205565b60405161040291906123ae565b60405180910390f35b610413611214565b6040516104209190611de4565b60405180910390f35b610431611227565b60405161043e91906123d0565b60405180910390f35b610461600480360381019061045c919061241e565b611236565b005b61046b611307565b005b60086020528060005260406000206000915090508060000180546104909061247a565b80601f01602080910402602001604051908101604052809291908181526020018280546104bc9061247a565b80156105095780601f106104de57610100808354040283529160200191610509565b820191906000526020600020905b8154815290600101906020018083116104ec57829003601f168201915b5050505050908060010154905082565b600460009054906101000a900460ff1615610569576040517f08c379a0000000000000000000000000000000000000000000000000000000008152600401610560906124f7565b60405180910390fd5b610571610b38565b6105b0576040517f08c379a00000000000000000000000000000000000000000000000000000000081526004016105a790612563565b60405180910390fd5b6009836040516105c091906125bf565b908152602001604051809103902060009054906101000a900460ff161561061c576040517f08c379a000000000000000000000000000000000000000000000000000000000815260040161061390612622565b60405180910390fd5b600060076000838152602001908152602001600020600001805461063f9061247a565b905003610681576040517f08c379a00000000000000000000000000000000000000000000000000000000081526004016106789061268e565b60405180910390fd5b60006008600084815260200190815260200160002060000180546106a49061247a565b9050036106e6576040517f08c379a00000000000000000000000000000000000000000000000000000000081526004016106dd906126fa565b60405180910390fd5b600060076000838152602001908152602001600020905080600301600081548092919061071290612749565b9190505550806004016000848152602001908152602001600020600081548092919061073d90612749565b91905055506003600081548092919061075590612749565b9190505550600160098560405161076c91906125bf565b908152602001604051809103902060006101000a81548160ff0219169083151502179055507fd0de2208ecba921aeb61118323ba6f9adb7b6f2c3cc88448e4bceca97de560148484846040516107c493929190612791565b60405180910390a150505050565b60008054906101000a900473ffffffffffffffffffffffffffffffffffffffff1681565b60035481565b60008054906101000a900473ffffffffffffffffffffffffffffffffffffffff1673ffffffffffffffffffffffffffffffffffffffff163373ffffffffffffffffffffffffffffffffffffffff161461088a576040517f08c379a00000000000000000000000000000000000000000000000000000000081526004016108819061281b565b60405180910390fd5b60006007600083815260200190815260200160002060000180546108ad9061247a565b9050036108ef576040517f08c379a00000000000000000000000000000000000000000000000000000000081526004016108e69061268e565b60405180910390fd5b6108fa600582611449565b600760008281526020019081526020016000206003015460036000828254610922919061283b565b92505081905550600760008281526020019081526020016000206000808201600061094d91906119a8565b60018201600061095d91906119a8565b60028201600090556003820160009055505050565b60025481565b60015481565b6006818154811061098e57600080fd5b906000526020600020016000915090505481565b60008054906101000a900473ffffffffffffffffffffffffffffffffffffffff1673ffffffffffffffffffffffffffffffffffffffff163373ffffffffffffffffffffffffffffffffffffffff1614610a30576040517f08c379a0000000000000000000000000000000000000000000000000000000008152600401610a279061281b565b60405180910390fd5b6000600860008381526020019081526020016000206000018054610a539061247a565b905003610a95576040517f08c379a0000000000000000000000000000000000000000000000000000000008152600401610a8c906126fa565b60405180910390fd5b610aa0600682611449565b60005b600580549050811015610b06576007600060058381548110610ac857610ac761286f565b5b906000526020600020015481526020019081526020016000206004016000838152602001908152602001600020600090558080600101915050610aa3565b506008600082815260200190815260200160002060008082016000610b2b91906119a8565b6001820160009055505050565b60006001544210158015610b4e57506002544211155b905090565b60058181548110610b6357600080fd5b906000526020600020016000915090505481565b6009818051602081018201805184825260208301602085012081835280955050505050506000915054906101000a900460ff1681565b60008054906101000a900473ffffffffffffffffffffffffffffffffffffffff1673ffffffffffffffffffffffffffffffffffffffff163373ffffffffffffffffffffffffffffffffffffffff1614610c3b576040517f08c379a0000000000000000000000000000000000000000000000000000000008152600401610c329061281b565b60405180910390fd5b6000600860008381526020019081526020016000206000018054610c5e9061247a565b905014610ca0576040517f08c379a0000000000000000000000000000000000000000000000000000000008152600401610c97906128ea565b60405180910390fd5b604051806040016040528083815260200182815250600860008381526020019081526020016000206000820151816000019081610cdd9190612ab6565b506020820151816001015590505060068190806001815401808255809150506001900390600052602060002001600090919091909150557faadc2cb898f9a2188d51488b9e24dfa12e85a315c886710a0d2b326f0b06d8cf8183604051610d45929190612b88565b60405180910390a15050565b60008054906101000a900473ffffffffffffffffffffffffffffffffffffffff1673ffffffffffffffffffffffffffffffffffffffff163373ffffffffffffffffffffffffffffffffffffffff1614610ddf576040517f08c379a0000000000000000000000000000000000000000000000000000000008152600401610dd69061281b565b60405180910390fd5b6000600760008381526020019081526020016000206000018054610e029061247a565b905014610e44576040517f08c379a0000000000000000000000000000000000000000000000000000000008152600401610e3b90612c04565b60405180910390fd5b600060076000838152602001908152602001600020905083816000019081610e6c9190612ab6565b5082816001019081610e7e9190612ab6565b508181600201819055506000816003018190555060058290806001815401808255809150506001900390600052602060002001600090919091909150557f54e9cb5ebe49e5aa1476cef7c5abac9af1cffc245b2a6403e531976361e3d59a8285604051610eec929190612b88565b60405180910390a150505050565b60008054906101000a900473ffffffffffffffffffffffffffffffffffffffff1673ffffffffffffffffffffffffffffffffffffffff163373ffffffffffffffffffffffffffffffffffffffff1614610f88576040517f08c379a0000000000000000000000000000000000000000000000000000000008152600401610f7f9061281b565b60405180910390fd5b600460009054906101000a900460ff16610fd7576040517f08c379a0000000000000000000000000000000000000000000000000000000008152600401610fce90612c70565b60405180910390fd5b6000600460006101000a81548160ff021916908315150217905550565b60008054906101000a900473ffffffffffffffffffffffffffffffffffffffff1673ffffffffffffffffffffffffffffffffffffffff163373ffffffffffffffffffffffffffffffffffffffff1614611082576040517f08c379a00000000000000000000000000000000000000000000000000000000081526004016110799061281b565b60405180910390fd5b4282116110c4576040517f08c379a00000000000000000000000000000000000000000000000000000000081526004016110bb90612cdc565b60405180910390fd5b818111611106576040517f08c379a00000000000000000000000000000000000000000000000000000000081526004016110fd90612d6e565b60405180910390fd5b81600181905550806002819055507f9160758ad24f87673a8c4eebb5b93702ffbcd3115c965f0e772f5a9922247f808282604051611145929190612d8e565b60405180910390a15050565b606080600080600080600080611165611509565b61116d611683565b600354600460009054906101000a900460ff16611188610b38565b6111918e6111d0565b60015460025497509750975097509750975097509750919395975091939597565b60008060006111bf610b38565b600154600254925092509250909192565b60006009826040516111e291906125bf565b908152602001604051809103902060009054906101000a900460ff169050919050565b606061120f611509565b905090565b600460009054906101000a900460ff1681565b6060611231611683565b905090565b60008054906101000a900473ffffffffffffffffffffffffffffffffffffffff1673ffffffffffffffffffffffffffffffffffffffff163373ffffffffffffffffffffffffffffffffffffffff16146112c4576040517f08c379a00000000000000000000000000000000000000000000000000000000081526004016112bb9061281b565b60405180910390fd5b806000806101000a81548173ffffffffffffffffffffffffffffffffffffffff021916908373ffffffffffffffffffffffffffffffffffffffff16021790555050565b60008054906101000a900473ffffffffffffffffffffffffffffffffffffffff1673ffffffffffffffffffffffffffffffffffffffff163373ffffffffffffffffffffffffffffffffffffffff1614611395576040517f08c379a000000000000000000000000000000000000000000000000000000000815260040161138c9061281b565b60405180910390fd5b600460009054906101000a900460ff16156113e5576040517f08c379a00000000000000000000000000000000000000000000000000000000081526004016113dc90612e03565b60405180910390fd5b6113ed610b38565b61142c576040517f08c379a000000000000000000000000000000000000000000000000000000000815260040161142390612e6f565b60405180910390fd5b6001600460006101000a81548160ff021916908315150217905550565b60005b8280549050811015611504578183828154811061146c5761146b61286f565b5b9060005260206000200154036114f757826001848054905061148e919061283b565b8154811061149f5761149e61286f565b5b90600052602060002001548382815481106114bd576114bc61286f565b5b9060005260206000200181905550828054806114dc576114db612e8f565b5b60019003818190600052602060002001600090559055611504565b808060010191505061144c565b505050565b6060600060068054905067ffffffffffffffff81111561152c5761152b611bb8565b5b60405190808252806020026020018201604052801561156557816020015b6115526119e8565b81526020019060019003908161154a5790505b50905060005b60068054905081101561167b5760086000600683815481106115905761158f61286f565b5b906000526020600020015481526020019081526020016000206040518060400160405290816000820180546115c49061247a565b80601f01602080910402602001604051908101604052809291908181526020018280546115f09061247a565b801561163d5780601f106116125761010080835404028352916020019161163d565b820191906000526020600020905b81548152906001019060200180831161162057829003601f168201915b505050505081526020016001820154815250508282815181106116635761166261286f565b5b6020026020010181905250808060010191505061156b565b508091505090565b6060600060058054905067ffffffffffffffff8111156116a6576116a5611bb8565b5b6040519080825280602002602001820160405280156116df57816020015b6116cc611a02565b8152602001906001900390816116c45790505b50905060005b6005805490508110156119a0576000600582815481106117085761170761286f565b5b906000526020600020015490506000600760008381526020019081526020016000209050600060068054905067ffffffffffffffff81111561174d5761174c611bb8565b5b60405190808252806020026020018201604052801561178657816020015b611773611a31565b81526020019060019003908161176b5790505b50905060005b60068054905081101561182a576040518060400160405280600683815481106117b8576117b761286f565b5b90600052602060002001548152602001846004016000600685815481106117e2576117e161286f565b5b90600052602060002001548152602001908152602001600020548152508282815181106118125761181161286f565b5b6020026020010181905250808060010191505061178c565b506040518060a001604052808360000180546118459061247a565b80601f01602080910402602001604051908101604052809291908181526020018280546118719061247a565b80156118be5780601f10611893576101008083540402835291602001916118be565b820191906000526020600020905b8154815290600101906020018083116118a157829003601f168201915b505050505081526020018360010180546118d79061247a565b80601f01602080910402602001604051908101604052809291908181526020018280546119039061247a565b80156119505780601f1061192557610100808354040283529160200191611950565b820191906000526020600020905b81548152906001019060200180831161193357829003601f168201915b505050505081526020018360020154815260200183600301548152602001828152508585815181106119855761198461286f565b5b602002602001018190525050505080806001019150506116e5565b508091505090565b5080546119b49061247a565b6000825580601f106119c657506119e5565b601f0160209004906000526020600020908101906119e49190611a4b565b5b50565b604051806040016040528060608152602001600081525090565b6040518060a0016040528060608152602001606081526020016000815260200160008152602001606081525090565b604051806040016040528060008152602001600081525090565b5b80821115611a64576000816000905550600101611a4c565b5090565b6000604051905090565b600080fd5b600080fd5b6000819050919050565b611a8f81611a7c565b8114611a9a57600080fd5b50565b600081359050611aac81611a86565b92915050565b600060208284031215611ac857611ac7611a72565b5b6000611ad684828501611a9d565b91505092915050565b600081519050919050565b600082825260208201905092915050565b60005b83811015611b19578082015181840152602081019050611afe565b60008484015250505050565b6000601f19601f8301169050919050565b6000611b4182611adf565b611b4b8185611aea565b9350611b5b818560208601611afb565b611b6481611b25565b840191505092915050565b611b7881611a7c565b82525050565b60006040820190508181036000830152611b988185611b36565b9050611ba76020830184611b6f565b9392505050565b600080fd5b600080fd5b7f4e487b7100000000000000000000000000000000000000000000000000000000600052604160045260246000fd5b611bf082611b25565b810181811067ffffffffffffffff82111715611c0f57611c0e611bb8565b5b80604052505050565b6000611c22611a68565b9050611c2e8282611be7565b919050565b600067ffffffffffffffff821115611c4e57611c4d611bb8565b5b611c5782611b25565b9050602081019050919050565b82818337600083830152505050565b6000611c86611c8184611c33565b611c18565b905082815260208101848484011115611ca257611ca1611bb3565b5b611cad848285611c64565b509392505050565b600082601f830112611cca57611cc9611bae565b5b8135611cda848260208601611c73565b91505092915050565b600080600060608486031215611cfc57611cfb611a72565b5b600084013567ffffffffffffffff811115611d1a57611d19611a77565b5b611d2686828701611cb5565b9350506020611d3786828701611a9d565b9250506040611d4886828701611a9d565b9150509250925092565b600073ffffffffffffffffffffffffffffffffffffffff82169050919050565b6000611d7d82611d52565b9050919050565b611d8d81611d72565b82525050565b6000602082019050611da86000830184611d84565b92915050565b6000602082019050611dc36000830184611b6f565b92915050565b60008115159050919050565b611dde81611dc9565b82525050565b6000602082019050611df96000830184611dd5565b92915050565b600060208284031215611e1557611e14611a72565b5b600082013567ffffffffffffffff811115611e3357611e32611a77565b5b611e3f84828501611cb5565b91505092915050565b60008060408385031215611e5f57611e5e611a72565b5b600083013567ffffffffffffffff811115611e7d57611e7c611a77565b5b611e8985828601611cb5565b9250506020611e9a85828601611a9d565b9150509250929050565b600080600060608486031215611ebd57611ebc611a72565b5b600084013567ffffffffffffffff811115611edb57611eda611a77565b5b611ee786828701611cb5565b935050602084013567ffffffffffffffff811115611f0857611f07611a77565b5b611f1486828701611cb5565b9250506040611f2586828701611a9d565b9150509250925092565b60008060408385031215611f4657611f45611a72565b5b6000611f5485828601611a9d565b9250506020611f6585828601611a9d565b9150509250929050565b600081519050919050565b600082825260208201905092915050565b6000819050602082019050919050565b600082825260208201905092915050565b6000611fb782611adf565b611fc18185611f9b565b9350611fd1818560208601611afb565b611fda81611b25565b840191505092915050565b611fee81611a7c565b82525050565b600060408301600083015184820360008601526120118282611fac565b91505060208301516120266020860182611fe5565b508091505092915050565b600061203d8383611ff4565b905092915050565b6000602082019050919050565b600061205d82611f6f565b6120678185611f7a565b93508360208202850161207985611f8b565b8060005b858110156120b557848403895281516120968582612031565b94506120a183612045565b925060208a0199505060018101905061207d565b50829750879550505050505092915050565b600081519050919050565b600082825260208201905092915050565b6000819050602082019050919050565b600081519050919050565b600082825260208201905092915050565b6000819050602082019050919050565b6040820160008201516121356000850182611fe5565b5060208201516121486020850182611fe5565b50505050565b600061215a838361211f565b60408301905092915050565b6000602082019050919050565b600061217e826120f3565b61218881856120fe565b93506121938361210f565b8060005b838110156121c45781516121ab888261214e565b97506121b683612166565b925050600181019050612197565b5085935050505092915050565b600060a08301600083015184820360008601526121ee8282611fac565b915050602083015184820360208601526122088282611fac565b915050604083015161221d6040860182611fe5565b5060608301516122306060860182611fe5565b50608083015184820360808601526122488282612173565b9150508091505092915050565b600061226183836121d1565b905092915050565b6000602082019050919050565b6000612281826120c7565b61228b81856120d2565b93508360208202850161229d856120e3565b8060005b858110156122d957848403895281516122ba8582612255565b94506122c583612269565b925060208a019950506001810190506122a1565b50829750879550505050505092915050565b6000610100820190508181036000830152612306818b612052565b9050818103602083015261231a818a612276565b90506123296040830189611b6f565b6123366060830188611dd5565b6123436080830187611dd5565b61235060a0830186611dd5565b61235d60c0830185611b6f565b61236a60e0830184611b6f565b9998505050505050505050565b600060608201905061238c6000830186611dd5565b6123996020830185611b6f565b6123a66040830184611b6f565b949350505050565b600060208201905081810360008301526123c88184612052565b905092915050565b600060208201905081810360008301526123ea8184612276565b905092915050565b6123fb81611d72565b811461240657600080fd5b50565b600081359050612418816123f2565b92915050565b60006020828403121561243457612433611a72565b5b600061244284828501612409565b91505092915050565b7f4e487b7100000000000000000000000000000000000000000000000000000000600052602260045260246000fd5b6000600282049050600182168061249257607f821691505b6020821081036124a5576124a461244b565b5b50919050565b7f566f74696e672070617573656400000000000000000000000000000000000000600082015250565b60006124e1600d83611aea565b91506124ec826124ab565b602082019050919050565b60006020820190508181036000830152612510816124d4565b9050919050565b7f566f74696e67206e6f7420616374697665000000000000000000000000000000600082015250565b600061254d601183611aea565b915061255882612517565b602082019050919050565b6000602082019050818103600083015261257c81612540565b9050919050565b600081905092915050565b600061259982611adf565b6125a38185612583565b93506125b3818560208601611afb565b80840191505092915050565b60006125cb828461258e565b915081905092915050565b7f596f75206861766520616c726561647920766f74656400000000000000000000600082015250565b600061260c601683611aea565b9150612617826125d6565b602082019050919050565b6000602082019050818103600083015261263b816125ff565b9050919050565b7f506172747920646f6573206e6f74206578697374000000000000000000000000600082015250565b6000612678601483611aea565b915061268382612642565b602082019050919050565b600060208201905081810360008301526126a78161266b565b9050919050565b7f537461746520646f6573206e6f74206578697374000000000000000000000000600082015250565b60006126e4601483611aea565b91506126ef826126ae565b602082019050919050565b60006020820190508181036000830152612713816126d7565b9050919050565b7f4e487b7100000000000000000000000000000000000000000000000000000000600052601160045260246000fd5b600061275482611a7c565b91507fffffffffffffffffffffffffffffffffffffffffffffffffffffffffffffffff82036127865761278561271a565b5b600182019050919050565b600060608201905081810360008301526127ab8186611b36565b90506127ba6020830185611b6f565b6127c76040830184611b6f565b949350505050565b7f4e6f7420617574686f72697a6564000000000000000000000000000000000000600082015250565b6000612805600e83611aea565b9150612810826127cf565b602082019050919050565b60006020820190508181036000830152612834816127f8565b9050919050565b600061284682611a7c565b915061285183611a7c565b92508282039050818111156128695761286861271a565b5b92915050565b7f4e487b7100000000000000000000000000000000000000000000000000000000600052603260045260246000fd5b7f5374617465204944206578697374730000000000000000000000000000000000600082015250565b60006128d4600f83611aea565b91506128df8261289e565b602082019050919050565b60006020820190508181036000830152612903816128c7565b9050919050565b60008190508160005260206000209050919050565b60006020601f8301049050919050565b600082821b905092915050565b60006008830261296c7fffffffffffffffffffffffffffffffffffffffffffffffffffffffffffffffff8261292f565b612976868361292f565b95508019841693508086168417925050509392505050565b6000819050919050565b60006129b36129ae6129a984611a7c565b61298e565b611a7c565b9050919050565b6000819050919050565b6129cd83612998565b6129e16129d9826129ba565b84845461293c565b825550505050565b600090565b6129f66129e9565b612a018184846129c4565b505050565b5b81811015612a2557612a1a6000826129ee565b600181019050612a07565b5050565b601f821115612a6a57612a3b8161290a565b612a448461291f565b81016020851015612a53578190505b612a67612a5f8561291f565b830182612a06565b50505b505050565b600082821c905092915050565b6000612a8d60001984600802612a6f565b1980831691505092915050565b6000612aa68383612a7c565b9150826002028217905092915050565b612abf82611adf565b67ffffffffffffffff811115612ad857612ad7611bb8565b5b612ae2825461247a565b612aed828285612a29565b600060209050601f831160018114612b205760008415612b0e578287015190505b612b188582612a9a565b865550612b80565b601f198416612b2e8661290a565b60005b82811015612b5657848901518255600182019150602085019450602081019050612b31565b86831015612b735784890151612b6f601f891682612a7c565b8355505b6001600288020188555050505b505050505050565b6000604082019050612b9d6000830185611b6f565b8181036020830152612baf8184611b36565b90509392505050565b7f5061727479204944206578697374730000000000000000000000000000000000600082015250565b6000612bee600f83611aea565b9150612bf982612bb8565b602082019050919050565b60006020820190508181036000830152612c1d81612be1565b9050919050565b7f4e6f742070617573656400000000000000000000000000000000000000000000600082015250565b6000612c5a600a83611aea565b9150612c6582612c24565b602082019050919050565b60006020820190508181036000830152612c8981612c4d565b9050919050565b7f53746172742074696d65206d75737420626520696e2066757475726500000000600082015250565b6000612cc6601c83611aea565b9150612cd182612c90565b602082019050919050565b60006020820190508181036000830152612cf581612cb9565b9050919050565b7f456e642074696d65206d7573742062652061667465722073746172742074696d60008201527f6500000000000000000000000000000000000000000000000000000000000000602082015250565b6000612d58602183611aea565b9150612d6382612cfc565b604082019050919050565b60006020820190508181036000830152612d8781612d4b565b9050919050565b6000604082019050612da36000830185611b6f565b612db06020830184611b6f565b9392505050565b7f416c726561647920706175736564000000000000000000000000000000000000600082015250565b6000612ded600e83611aea565b9150612df882612db7565b602082019050919050565b60006020820190508181036000830152612e1c81612de0565b9050919050565b7f4e6f2061637469766520766f74696e6720746f20706175736500000000000000600082015250565b6000612e59601983611aea565b9150612e6482612e23565b602082019050919050565b60006020820190508181036000830152612e8881612e4c565b9050919050565b7f4e487b7100000000000000000000000000000000000000000000000000000000600052603160045260246000fdfea2646970667358221220f9c7eb123ec1f4b893a631ea7c01da29301446d2bdb87099ea1a3e29f8c28a0b64736f6c634300081c0033",
  "linkReferences": {},
  "deployedLinkReferences": {}
}