{
  "_format": "hh-sol-artifact-1",
  "contractName": "Election",
  "sourceName": "contracts/Election.sol",
  "abi": [
    {
      "inputs": [],
      "stateMutability": "nonpayable",
      "type": "constructor"
    },
    {
      "anonymous": false,
      "inputs": [
        {
          "indexed": false,
          "internalType": "uint256",
          "name": "partyId",
          "type": "uint256"
        },
        {
          "indexed": false,
          "internalType": "string",
          "name": "partyName",
          "type": "string"
        }
      ],
      "name": "PartyAdded",
      "type": "event"
    },
    {
      "anonymous": false,
      "inputs": [
        {
          "indexed": false,
          "internalType": "uint256",
          "name": "stateId",
          "type": "uint256"
        },
        {
          "indexed": false,
          "internalType": "string",
          "name": "stateName",
          "type": "string"
        }
      ],
      "name": "StateAdded",
      "type": "event"
    },
    {
      "anonymous": false,
      "inputs": [
        {
          "indexed": false,
          "internalType": "uint256",
          "name": "voterId",
          "type": "uint256"
        },
        {
          "indexed": false,
          "internalType": "uint256",
          "name": "stateId",
          "type": "uint256"
        },
        {
          "indexed": false,
          "internalType": "uint256",
          "name": "partyId",
          "type": "uint256"
        }
      ],
      "name": "VoteCast",
      "type": "event"
    },
    {
      "anonymous": false,
      "inputs": [
        {
          "indexed": false,
          "internalType": "uint256",
          "name": "startTime",
          "type": "uint256"
        },
        {
          "indexed": false,
          "internalType": "uint256",
          "name": "endTime",
          "type": "uint256"
        }
      ],
      "name": "VotingTimesSet",
      "type": "event"
    },
    {
      "inputs": [
        {
          "internalType": "string",
          "name": "_name",
          "type": "string"
        },
        {
          "internalType": "string",
          "name": "_symbol",
          "type": "string"
        },
        {
          "internalType": "uint256",
          "name": "_partyId",
          "type": "uint256"
        }
      ],
      "name": "addParty",
      "outputs": [],
      "stateMutability": "nonpayable",
      "type": "function"
    },
    {
      "inputs": [
        {
          "internalType": "string",
          "name": "_stateName",
          "type": "string"
        },
        {
          "internalType": "uint256",
          "name": "_stateId",
          "type": "uint256"
        }
      ],
      "name": "addState",
      "outputs": [],
      "stateMutability": "nonpayable",
      "type": "function"
    },
    {
      "inputs": [
        {
          "internalType": "uint256",
          "name": "_partyId",
          "type": "uint256"
        }
      ],
      "name": "deleteParty",
      "outputs": [],
      "stateMutability": "nonpayable",
      "type": "function"
    },
    {
      "inputs": [
        {
          "internalType": "uint256",
          "name": "_stateId",
          "type": "uint256"
        }
      ],
      "name": "deleteState",
      "outputs": [],
      "stateMutability": "nonpayable",
      "type": "function"
    },
    {
      "inputs": [
        {
          "internalType": "uint256",
          "name": "voterId",
          "type": "uint256"
        }
      ],
      "name": "getAllData",
      "outputs": [
        {
          "components": [
            {
              "internalType": "string",
              "name": "stateName",
              "type": "string"
            },
            {
              "internalType": "uint256",
              "name": "stateId",
              "type": "uint256"
            }
          ],
          "internalType": "struct Election.State[]",
          "name": "",
          "type": "tuple[]"
        },
        {
          "components": [
            {
              "internalType": "string",
              "name": "partyName",
              "type": "string"
            },
            {
              "internalType": "string",
              "name": "symbol",
              "type": "string"
            },
            {
              "internalType": "uint256",
              "name": "partyId",
              "type": "uint256"
            },
            {
              "internalType": "uint256",
              "name": "totalVoteCount",
              "type": "uint256"
            },
            {
              "components": [
                {
                  "internalType": "uint256",
                  "name": "stateId",
                  "type": "uint256"
                },
                {
                  "internalType": "uint256",
                  "name": "votes",
                  "type": "uint256"
                }
              ],
              "internalType": "struct Election.StateVote[]",
              "name": "stateVotes",
              "type": "tuple[]"
            }
          ],
          "internalType": "struct Election.PartyView[]",
          "name": "",
          "type": "tuple[]"
        },
        {
          "internalType": "uint256",
          "name": "",
          "type": "uint256"
        },
        {
          "internalType": "bool",
          "name": "",
          "type": "bool"
        },
        {
          "internalType": "bool",
          "name": "",
          "type": "bool"
        },
        {
          "internalType": "bool",
          "name": "",
          "type": "bool"
        },
        {
          "internalType": "uint256",
          "name": "",
          "type": "uint256"
        },
        {
          "internalType": "uint256",
          "name": "",
          "type": "uint256"
        }
      ],
      "stateMutability": "view",
      "type": "function"
    },
    {
      "inputs": [],
      "name": "getAllParties",
      "outputs": [
        {
          "components": [
            {
              "internalType": "string",
              "name": "partyName",
              "type": "string"
            },
            {
              "internalType": "string",
              "name": "symbol",
              "type": "string"
            },
            {
              "internalType": "uint256",
              "name": "partyId",
              "type": "uint256"
            },
            {
              "internalType": "uint256",
              "name": "totalVoteCount",
              "type": "uint256"
            },
            {
              "components": [
                {
                  "internalType": "uint256",
                  "name": "stateId",
                  "type": "uint256"
                },
                {
                  "internalType": "uint256",
                  "name": "votes",
                  "type": "uint256"
                }
              ],
              "internalType": "struct Election.StateVote[]",
              "name": "stateVotes",
              "type": "tuple[]"
            }
          ],
          "internalType": "struct Election.PartyView[]",
          "name": "",
          "type": "tuple[]"
        }
      ],
      "stateMutability": "view",
      "type": "function"
    },
    {
      "inputs": [],
      "name": "getAllStates",
      "outputs": [
        {
          "components": [
            {
              "internalType": "string",
              "name": "stateName",
              "type": "string"
            },
            {
              "internalType": "uint256",
              "name": "stateId",
              "type": "uint256"
            }
          ],
          "internalType": "struct Election.State[]",
          "name": "",
          "type": "tuple[]"
        }
      ],
      "stateMutability": "view",
      "type": "function"
    },
    {
      "inputs": [
        {
          "internalType": "uint256",
          "name": "voterId",
          "type": "uint256"
        }
      ],
      "name": "hasUserVoted",
      "outputs": [
        {
          "internalType": "bool",
          "name": "",
          "type": "bool"
        }
      ],
      "stateMutability": "view",
      "type": "function"
    },
    {
      "inputs": [],
      "name": "isVotingActive",
      "outputs": [
        {
          "internalType": "bool",
          "name": "",
          "type": "bool"
        }
      ],
      "stateMutability": "view",
      "type": "function"
    },
    {
      "inputs": [
        {
          "internalType": "uint256",
          "name": "",
          "type": "uint256"
        }
      ],
      "name": "partyIds",
      "outputs": [
        {
          "internalType": "uint256",
          "name": "",
          "type": "uint256"
        }
      ],
      "stateMutability": "view",
      "type": "function"
    },
    {
      "inputs": [],
      "name": "pauseVoting",
      "outputs": [],
      "stateMutability": "nonpayable",
      "type": "function"
    },
    {
      "inputs": [],
      "name": "resumeVoting",
      "outputs": [],
      "stateMutability": "nonpayable",
      "type": "function"
    },
    {
      "inputs": [
        {
          "internalType": "uint256",
          "name": "_startTime",
          "type": "uint256"
        },
        {
          "internalType": "uint256",
          "name": "_endTime",
          "type": "uint256"
        }
      ],
      "name": "setVotingTimes",
      "outputs": [],
      "stateMutability": "nonpayable",
      "type": "function"
    },
    {
      "inputs": [
        {
          "internalType": "uint256",
          "name": "",
          "type": "uint256"
        }
      ],
      "name": "stateIds",
      "outputs": [
        {
          "internalType": "uint256",
          "name": "",
          "type": "uint256"
        }
      ],
      "stateMutability": "view",
      "type": "function"
    },
    {
      "inputs": [
        {
          "internalType": "uint256",
          "name": "",
          "type": "uint256"
        }
      ],
      "name": "states",
      "outputs": [
        {
          "internalType": "string",
          "name": "stateName",
          "type": "string"
        },
        {
          "internalType": "uint256",
          "name": "stateId",
          "type": "uint256"
        }
      ],
      "stateMutability": "view",
      "type": "function"
    },
    {
      "inputs": [],
      "name": "timeData",
      "outputs": [
        {
          "internalType": "bool",
          "name": "",
          "type": "bool"
        },
        {
          "internalType": "uint256",
          "name": "",
          "type": "uint256"
        },
        {
          "internalType": "uint256",
          "name": "",
          "type": "uint256"
        }
      ],
      "stateMutability": "view",
      "type": "function"
    },
    {
      "inputs": [],
      "name": "totalVotes",
      "outputs": [
        {
          "internalType": "uint256",
          "name": "",
          "type": "uint256"
        }
      ],
      "stateMutability": "view",
      "type": "function"
    },
    {
      "inputs": [
        {
          "internalType": "address",
          "name": "newOwner",
          "type": "address"
        }
      ],
      "name": "transferOwnership",
      "outputs": [],
      "stateMutability": "nonpayable",
      "type": "function"
    },
    {
      "inputs": [
        {
          "internalType": "uint256",
          "name": "_voterId",
          "type": "uint256"
        },
        {
          "internalType": "uint256",
          "name": "_voterState",
          "type": "uint256"
        },
        {
          "internalType": "uint256",
          "name": "_votedPartyId",
          "type": "uint256"
        }
      ],
      "name": "vote",
      "outputs": [],
      "stateMutability": "nonpayable",
      "type": "function"
    },
    {
      "inputs": [
        {
          "internalType": "uint256",
          "name": "",
          "type": "uint256"
        }
      ],
      "name": "voters",
      "outputs": [
        {
          "internalType": "bool",
          "name": "",
          "type": "bool"
        }
      ],
      "stateMutability": "view",
      "type": "function"
    },
    {
      "inputs": [],
      "name": "votingEndTime",
      "outputs": [
        {
          "internalType": "uint256",
          "name": "",
          "type": "uint256"
        }
      ],
      "stateMutability": "view",
      "type": "function"
    },
    {
      "inputs": [],
      "name": "votingPaused",
      "outputs": [
        {
          "internalType": "bool",
          "name": "",
          "type": "bool"
        }
      ],
      "stateMutability": "view",
      "type": "function"
    },
    {
      "inputs": [],
      "name": "votingStartTime",
      "outputs": [
        {
          "internalType": "uint256",
          "name": "",
          "type": "uint256"
        }
      ],
      "stateMutability": "view",
      "type": "function"
    }
  ],
  "bytecode": "0x6080604052348015600f57600080fd5b50336000806101000a81548173ffffffffffffffffffffffffffffffffffffffff021916908373ffffffffffffffffffffffffffffffffffffffff160217905550612d7c8061005f6000396000f3fe608060405234801561001057600080fd5b506004361061014d5760003560e01c80635c060b79116100c3578063a4ddb0711161007c578063a4ddb07114610394578063ae66c9ea146103b2578063b867bfcc146103d0578063da58c7d9146103ee578063f2fde38b1461041e578063f3cdcd1e1461043a5761014d565b80635c060b79146102fa57806376290dd2146103165780637afdf93e146103325780637d2e629e1461033c5780638a6655d614610358578063a0e43959146103745761014d565b80632019a608116101155780632019a60814610212578063257da3ef1461023057806337eb39061461026057806347cf6f761461027c5780634f6c90cf1461029a5780635153af5c146102ca5761014d565b8063017a9105146101525780630d15fd77146101835780630fc49ddd146101a157806316aa136e146101bd5780631ea736e0146101f4575b600080fd5b61016c60048036038101906101679190611a23565b610444565b60405161017a929190611aef565b60405180910390f35b61018b6104f0565b6040516101989190611b1f565b60405180910390f35b6101bb60048036038101906101b69190611a23565b6104f6565b005b6101d760048036038101906101d29190611a23565b61063d565b6040516101eb989796959493929190611ed1565b60405180910390f35b6101fc61069e565b6040516102099190611b1f565b60405180910390f35b61021a6106a4565b6040516102279190611b1f565b60405180910390f35b61024a60048036038101906102459190611a23565b6106aa565b6040516102579190611b1f565b60405180910390f35b61027a60048036038101906102759190611a23565b6106ce565b005b610284610864565b6040516102919190611f5d565b60405180910390f35b6102b460048036038101906102af9190611a23565b61087f565b6040516102c19190611b1f565b60405180910390f35b6102e460048036038101906102df9190611a23565b6108a3565b6040516102f19190611f5d565b60405180910390f35b610314600480360381019061030f91906120ad565b6108cd565b005b610330600480360381019061032b9190612109565b610a65565b005b61033a610c3e565b005b61035660048036038101906103519190612194565b610d38565b005b610372600480360381019061036d91906121d4565b610e95565b005b61037c611138565b60405161038b93929190612227565b60405180910390f35b61039c611156565b6040516103a9919061225e565b60405180910390f35b6103ba611165565b6040516103c79190611f5d565b60405180910390f35b6103d8611178565b6040516103e59190612280565b60405180910390f35b61040860048036038101906104039190611a23565b611187565b6040516104159190611f5d565b60405180910390f35b61043860048036038101906104339190612300565b6111a7565b005b610442611278565b005b60086020528060005260406000206000915090508060000180546104679061235c565b80601f01602080910402602001604051908101604052809291908181526020018280546104939061235c565b80156104e05780601f106104b5576101008083540402835291602001916104e0565b820191906000526020600020905b8154815290600101906020018083116104c357829003601f168201915b5050505050908060010154905082565b60035481565b60008054906101000a900473ffffffffffffffffffffffffffffffffffffffff1673ffffffffffffffffffffffffffffffffffffffff163373ffffffffffffffffffffffffffffffffffffffff1614610584576040517f08c379a000000000000000000000000000000000000000000000000000000000815260040161057b906123d9565b60405180910390fd5b60006007600083815260200190815260200160002060000180546105a79061235c565b9050036105e9576040517f08c379a00000000000000000000000000000000000000000000000000000000081526004016105e090612445565b60405180910390fd5b6105f46005826113ba565b60076000828152602001908152602001600020600080820160006106189190611919565b6001820160006106289190611919565b60028201600090556003820160009055505050565b60608060008060008060008061065161147a565b6106596115f4565b600354600460009054906101000a900460ff16610674610864565b61067d8e6108a3565b60015460025497509750975097509750975097509750919395975091939597565b60025481565b60015481565b600681815481106106ba57600080fd5b906000526020600020016000915090505481565b60008054906101000a900473ffffffffffffffffffffffffffffffffffffffff1673ffffffffffffffffffffffffffffffffffffffff163373ffffffffffffffffffffffffffffffffffffffff161461075c576040517f08c379a0000000000000000000000000000000000000000000000000000000008152600401610753906123d9565b60405180910390fd5b600060086000838152602001908152602001600020600001805461077f9061235c565b9050036107c1576040517f08c379a00000000000000000000000000000000000000000000000000000000081526004016107b8906124b1565b60405180910390fd5b6107cc6006826113ba565b60005b6005805490508110156108325760076000600583815481106107f4576107f36124d1565b5b9060005260206000200154815260200190815260200160002060040160008381526020019081526020016000206000905580806001019150506107cf565b5060086000828152602001908152602001600020600080820160006108579190611919565b6001820160009055505050565b6000600154421015801561087a57506002544211155b905090565b6005818154811061088f57600080fd5b906000526020600020016000915090505481565b60006009600083815260200190815260200160002060009054906101000a900460ff169050919050565b60008054906101000a900473ffffffffffffffffffffffffffffffffffffffff1673ffffffffffffffffffffffffffffffffffffffff163373ffffffffffffffffffffffffffffffffffffffff161461095b576040517f08c379a0000000000000000000000000000000000000000000000000000000008152600401610952906123d9565b60405180910390fd5b600060086000838152602001908152602001600020600001805461097e9061235c565b9050146109c0576040517f08c379a00000000000000000000000000000000000000000000000000000000081526004016109b79061254c565b60405180910390fd5b816008600083815260200190815260200160002060000190816109e39190612718565b5080600860008381526020019081526020016000206001018190555060068190806001815401808255809150506001900390600052602060002001600090919091909150557faadc2cb898f9a2188d51488b9e24dfa12e85a315c886710a0d2b326f0b06d8cf8183604051610a599291906127ea565b60405180910390a15050565b60008054906101000a900473ffffffffffffffffffffffffffffffffffffffff1673ffffffffffffffffffffffffffffffffffffffff163373ffffffffffffffffffffffffffffffffffffffff1614610af3576040517f08c379a0000000000000000000000000000000000000000000000000000000008152600401610aea906123d9565b60405180910390fd5b6000600760008381526020019081526020016000206000018054610b169061235c565b905014610b58576040517f08c379a0000000000000000000000000000000000000000000000000000000008152600401610b4f90612866565b60405180910390fd5b82600760008381526020019081526020016000206000019081610b7b9190612718565b5081600760008381526020019081526020016000206001019081610b9f9190612718565b508060076000838152602001908152602001600020600201819055506000600760008381526020019081526020016000206003018190555060058190806001815401808255809150506001900390600052602060002001600090919091909150557f54e9cb5ebe49e5aa1476cef7c5abac9af1cffc245b2a6403e531976361e3d59a8184604051610c319291906127ea565b60405180910390a1505050565b60008054906101000a900473ffffffffffffffffffffffffffffffffffffffff1673ffffffffffffffffffffffffffffffffffffffff163373ffffffffffffffffffffffffffffffffffffffff1614610ccc576040517f08c379a0000000000000000000000000000000000000000000000000000000008152600401610cc3906123d9565b60405180910390fd5b600460009054906101000a900460ff16610d1b576040517f08c379a0000000000000000000000000000000000000000000000000000000008152600401610d12906128d2565b60405180910390fd5b6000600460006101000a81548160ff021916908315150217905550565b60008054906101000a900473ffffffffffffffffffffffffffffffffffffffff1673ffffffffffffffffffffffffffffffffffffffff163373ffffffffffffffffffffffffffffffffffffffff1614610dc6576040517f08c379a0000000000000000000000000000000000000000000000000000000008152600401610dbd906123d9565b60405180910390fd5b428211610e08576040517f08c379a0000000000000000000000000000000000000000000000000000000008152600401610dff9061293e565b60405180910390fd5b818111610e4a576040517f08c379a0000000000000000000000000000000000000000000000000000000008152600401610e41906129d0565b60405180910390fd5b81600181905550806002819055507f9160758ad24f87673a8c4eebb5b93702ffbcd3115c965f0e772f5a9922247f808282604051610e899291906129f0565b60405180910390a15050565b600460009054906101000a900460ff1615610ee5576040517f08c379a0000000000000000000000000000000000000000000000000000000008152600401610edc90612a65565b60405180910390fd5b610eed610864565b610f2c576040517f08c379a0000000000000000000000000000000000000000000000000000000008152600401610f2390612ad1565b60405180910390fd5b6009600084815260200190815260200160002060009054906101000a900460ff1615610f8d576040517f08c379a0000000000000000000000000000000000000000000000000000000008152600401610f8490612b3d565b60405180910390fd5b6000600760008381526020019081526020016000206000018054610fb09061235c565b905003610ff2576040517f08c379a0000000000000000000000000000000000000000000000000000000008152600401610fe990612445565b60405180910390fd5b60006008600084815260200190815260200160002060000180546110159061235c565b905003611057576040517f08c379a000000000000000000000000000000000000000000000000000000000815260040161104e906124b1565b60405180910390fd5b600060076000838152602001908152602001600020905080600301600081548092919061108390612b8c565b919050555080600401600084815260200190815260200160002060008154809291906110ae90612b8c565b9190505550600360008154809291906110c690612b8c565b919050555060016009600086815260200190815260200160002060006101000a81548160ff0219169083151502179055507f24930ecca7f60d4736cd965cb5522694ea4b32308405d3f88fea2f59eff63caa84848460405161112a93929190612bd4565b60405180910390a150505050565b6000806000611145610864565b600154600254925092509250909192565b606061116061147a565b905090565b600460009054906101000a900460ff1681565b60606111826115f4565b905090565b60096020528060005260406000206000915054906101000a900460ff1681565b60008054906101000a900473ffffffffffffffffffffffffffffffffffffffff1673ffffffffffffffffffffffffffffffffffffffff163373ffffffffffffffffffffffffffffffffffffffff1614611235576040517f08c379a000000000000000000000000000000000000000000000000000000000815260040161122c906123d9565b60405180910390fd5b806000806101000a81548173ffffffffffffffffffffffffffffffffffffffff021916908373ffffffffffffffffffffffffffffffffffffffff16021790555050565b60008054906101000a900473ffffffffffffffffffffffffffffffffffffffff1673ffffffffffffffffffffffffffffffffffffffff163373ffffffffffffffffffffffffffffffffffffffff1614611306576040517f08c379a00000000000000000000000000000000000000000000000000000000081526004016112fd906123d9565b60405180910390fd5b600460009054906101000a900460ff1615611356576040517f08c379a000000000000000000000000000000000000000000000000000000000815260040161134d90612c57565b60405180910390fd5b61135e610864565b61139d576040517f08c379a000000000000000000000000000000000000000000000000000000000815260040161139490612cc3565b60405180910390fd5b6001600460006101000a81548160ff021916908315150217905550565b60005b828054905081101561147557818382815481106113dd576113dc6124d1565b5b9060005260206000200154036114685782600184805490506113ff9190612ce3565b815481106114105761140f6124d1565b5b906000526020600020015483828154811061142e5761142d6124d1565b5b90600052602060002001819055508280548061144d5761144c612d17565b5b60019003818190600052602060002001600090559055611475565b80806001019150506113bd565b505050565b6060600060068054905067ffffffffffffffff81111561149d5761149c611f82565b5b6040519080825280602002602001820160405280156114d657816020015b6114c3611959565b8152602001906001900390816114bb5790505b50905060005b6006805490508110156115ec576008600060068381548110611501576115006124d1565b5b906000526020600020015481526020019081526020016000206040518060400160405290816000820180546115359061235c565b80601f01602080910402602001604051908101604052809291908181526020018280546115619061235c565b80156115ae5780601f10611583576101008083540402835291602001916115ae565b820191906000526020600020905b81548152906001019060200180831161159157829003601f168201915b505050505081526020016001820154815250508282815181106115d4576115d36124d1565b5b602002602001018190525080806001019150506114dc565b508091505090565b6060600060058054905067ffffffffffffffff81111561161757611616611f82565b5b60405190808252806020026020018201604052801561165057816020015b61163d611973565b8152602001906001900390816116355790505b50905060005b60058054905081101561191157600060058281548110611679576116786124d1565b5b906000526020600020015490506000600760008381526020019081526020016000209050600060068054905067ffffffffffffffff8111156116be576116bd611f82565b5b6040519080825280602002602001820160405280156116f757816020015b6116e46119a2565b8152602001906001900390816116dc5790505b50905060005b60068054905081101561179b57604051806040016040528060068381548110611729576117286124d1565b5b9060005260206000200154815260200184600401600060068581548110611753576117526124d1565b5b9060005260206000200154815260200190815260200160002054815250828281518110611783576117826124d1565b5b602002602001018190525080806001019150506116fd565b506040518060a001604052808360000180546117b69061235c565b80601f01602080910402602001604051908101604052809291908181526020018280546117e29061235c565b801561182f5780601f106118045761010080835404028352916020019161182f565b820191906000526020600020905b81548152906001019060200180831161181257829003601f168201915b505050505081526020018360010180546118489061235c565b80601f01602080910402602001604051908101604052809291908181526020018280546118749061235c565b80156118c15780601f10611896576101008083540402835291602001916118c1565b820191906000526020600020905b8154815290600101906020018083116118a457829003601f168201915b505050505081526020018360020154815260200183600301548152602001828152508585815181106118f6576118f56124d1565b5b60200260200101819052505050508080600101915050611656565b508091505090565b5080546119259061235c565b6000825580601f106119375750611956565b601f01602090049060005260206000209081019061195591906119bc565b5b50565b604051806040016040528060608152602001600081525090565b6040518060a0016040528060608152602001606081526020016000815260200160008152602001606081525090565b604051806040016040528060008152602001600081525090565b5b808211156119d55760008160009055506001016119bd565b5090565b6000604051905090565b600080fd5b600080fd5b6000819050919050565b611a00816119ed565b8114611a0b57600080fd5b50565b600081359050611a1d816119f7565b92915050565b600060208284031215611a3957611a386119e3565b5b6000611a4784828501611a0e565b91505092915050565b600081519050919050565b600082825260208201905092915050565b60005b83811015611a8a578082015181840152602081019050611a6f565b60008484015250505050565b6000601f19601f8301169050919050565b6000611ab282611a50565b611abc8185611a5b565b9350611acc818560208601611a6c565b611ad581611a96565b840191505092915050565b611ae9816119ed565b82525050565b60006040820190508181036000830152611b098185611aa7565b9050611b186020830184611ae0565b9392505050565b6000602082019050611b346000830184611ae0565b92915050565b600081519050919050565b600082825260208201905092915050565b6000819050602082019050919050565b600082825260208201905092915050565b6000611b8282611a50565b611b8c8185611b66565b9350611b9c818560208601611a6c565b611ba581611a96565b840191505092915050565b611bb9816119ed565b82525050565b60006040830160008301518482036000860152611bdc8282611b77565b9150506020830151611bf16020860182611bb0565b508091505092915050565b6000611c088383611bbf565b905092915050565b6000602082019050919050565b6000611c2882611b3a565b611c328185611b45565b935083602082028501611c4485611b56565b8060005b85811015611c805784840389528151611c618582611bfc565b9450611c6c83611c10565b925060208a01995050600181019050611c48565b50829750879550505050505092915050565b600081519050919050565b600082825260208201905092915050565b6000819050602082019050919050565b600081519050919050565b600082825260208201905092915050565b6000819050602082019050919050565b604082016000820151611d006000850182611bb0565b506020820151611d136020850182611bb0565b50505050565b6000611d258383611cea565b60408301905092915050565b6000602082019050919050565b6000611d4982611cbe565b611d538185611cc9565b9350611d5e83611cda565b8060005b83811015611d8f578151611d768882611d19565b9750611d8183611d31565b925050600181019050611d62565b5085935050505092915050565b600060a0830160008301518482036000860152611db98282611b77565b91505060208301518482036020860152611dd38282611b77565b9150506040830151611de86040860182611bb0565b506060830151611dfb6060860182611bb0565b5060808301518482036080860152611e138282611d3e565b9150508091505092915050565b6000611e2c8383611d9c565b905092915050565b6000602082019050919050565b6000611e4c82611c92565b611e568185611c9d565b935083602082028501611e6885611cae565b8060005b85811015611ea45784840389528151611e858582611e20565b9450611e9083611e34565b925060208a01995050600181019050611e6c565b50829750879550505050505092915050565b60008115159050919050565b611ecb81611eb6565b82525050565b6000610100820190508181036000830152611eec818b611c1d565b90508181036020830152611f00818a611e41565b9050611f0f6040830189611ae0565b611f1c6060830188611ec2565b611f296080830187611ec2565b611f3660a0830186611ec2565b611f4360c0830185611ae0565b611f5060e0830184611ae0565b9998505050505050505050565b6000602082019050611f726000830184611ec2565b92915050565b600080fd5b600080fd5b7f4e487b7100000000000000000000000000000000000000000000000000000000600052604160045260246000fd5b611fba82611a96565b810181811067ffffffffffffffff82111715611fd957611fd8611f82565b5b80604052505050565b6000611fec6119d9565b9050611ff88282611fb1565b919050565b600067ffffffffffffffff82111561201857612017611f82565b5b61202182611a96565b9050602081019050919050565b82818337600083830152505050565b600061205061204b84611ffd565b611fe2565b90508281526020810184848401111561206c5761206b611f7d565b5b61207784828561202e565b509392505050565b600082601f83011261209457612093611f78565b5b81356120a484826020860161203d565b91505092915050565b600080604083850312156120c4576120c36119e3565b5b600083013567ffffffffffffffff8111156120e2576120e16119e8565b5b6120ee8582860161207f565b92505060206120ff85828601611a0e565b9150509250929050565b600080600060608486031215612122576121216119e3565b5b600084013567ffffffffffffffff8111156121405761213f6119e8565b5b61214c8682870161207f565b935050602084013567ffffffffffffffff81111561216d5761216c6119e8565b5b6121798682870161207f565b925050604061218a86828701611a0e565b9150509250925092565b600080604083850312156121ab576121aa6119e3565b5b60006121b985828601611a0e565b92505060206121ca85828601611a0e565b9150509250929050565b6000806000606084860312156121ed576121ec6119e3565b5b60006121fb86828701611a0e565b935050602061220c86828701611a0e565b925050604061221d86828701611a0e565b9150509250925092565b600060608201905061223c6000830186611ec2565b6122496020830185611ae0565b6122566040830184611ae0565b949350505050565b600060208201905081810360008301526122788184611c1d565b905092915050565b6000602082019050818103600083015261229a8184611e41565b905092915050565b600073ffffffffffffffffffffffffffffffffffffffff82169050919050565b60006122cd826122a2565b9050919050565b6122dd816122c2565b81146122e857600080fd5b50565b6000813590506122fa816122d4565b92915050565b600060208284031215612316576123156119e3565b5b6000612324848285016122eb565b91505092915050565b7f4e487b7100000000000000000000000000000000000000000000000000000000600052602260045260246000fd5b6000600282049050600182168061237457607f821691505b6020821081036123875761238661232d565b5b50919050565b7f4e6f7420617574686f72697a6564000000000000000000000000000000000000600082015250565b60006123c3600e83611a5b565b91506123ce8261238d565b602082019050919050565b600060208201905081810360008301526123f2816123b6565b9050919050565b7f506172747920646f6573206e6f74206578697374000000000000000000000000600082015250565b600061242f601483611a5b565b915061243a826123f9565b602082019050919050565b6000602082019050818103600083015261245e81612422565b9050919050565b7f537461746520646f6573206e6f74206578697374000000000000000000000000600082015250565b600061249b601483611a5b565b91506124a682612465565b602082019050919050565b600060208201905081810360008301526124ca8161248e565b9050919050565b7f4e487b7100000000000000000000000000000000000000000000000000000000600052603260045260246000fd5b7f5374617465204944206578697374730000000000000000000000000000000000600082015250565b6000612536600f83611a5b565b915061254182612500565b602082019050919050565b6000602082019050818103600083015261256581612529565b9050919050565b60008190508160005260206000209050919050565b60006020601f8301049050919050565b600082821b905092915050565b6000600883026125ce7fffffffffffffffffffffffffffffffffffffffffffffffffffffffffffffffff82612591565b6125d88683612591565b95508019841693508086168417925050509392505050565b6000819050919050565b600061261561261061260b846119ed565b6125f0565b6119ed565b9050919050565b6000819050919050565b61262f836125fa565b61264361263b8261261c565b84845461259e565b825550505050565b600090565b61265861264b565b612663818484612626565b505050565b5b818110156126875761267c600082612650565b600181019050612669565b5050565b601f8211156126cc5761269d8161256c565b6126a684612581565b810160208510156126b5578190505b6126c96126c185612581565b830182612668565b50505b505050565b600082821c905092915050565b60006126ef600019846008026126d1565b1980831691505092915050565b600061270883836126de565b9150826002028217905092915050565b61272182611a50565b67ffffffffffffffff81111561273a57612739611f82565b5b612744825461235c565b61274f82828561268b565b600060209050601f8311600181146127825760008415612770578287015190505b61277a85826126fc565b8655506127e2565b601f1984166127908661256c565b60005b828110156127b857848901518255600182019150602085019450602081019050612793565b868310156127d557848901516127d1601f8916826126de565b8355505b6001600288020188555050505b505050505050565b60006040820190506127ff6000830185611ae0565b81810360208301526128118184611aa7565b90509392505050565b7f5061727479204944206578697374730000000000000000000000000000000000600082015250565b6000612850600f83611a5b565b915061285b8261281a565b602082019050919050565b6000602082019050818103600083015261287f81612843565b9050919050565b7f4e6f742070617573656400000000000000000000000000000000000000000000600082015250565b60006128bc600a83611a5b565b91506128c782612886565b602082019050919050565b600060208201905081810360008301526128eb816128af565b9050919050565b7f53746172742074696d65206d75737420626520696e2066757475726500000000600082015250565b6000612928601c83611a5b565b9150612933826128f2565b602082019050919050565b600060208201905081810360008301526129578161291b565b9050919050565b7f456e642074696d65206d7573742062652061667465722073746172742074696d60008201527f6500000000000000000000000000000000000000000000000000000000000000602082015250565b60006129ba602183611a5b565b91506129c58261295e565b604082019050919050565b600060208201905081810360008301526129e9816129ad565b9050919050565b6000604082019050612a056000830185611ae0565b612a126020830184611ae0565b9392505050565b7f566f74696e672070617573656400000000000000000000000000000000000000600082015250565b6000612a4f600d83611a5b565b9150612a5a82612a19565b602082019050919050565b60006020820190508181036000830152612a7e81612a42565b9050919050565b7f4f75747369646520766f74696e6720706572696f640000000000000000000000600082015250565b6000612abb601583611a5b565b9150612ac682612a85565b602082019050919050565b60006020820190508181036000830152612aea81612aae565b9050919050565b7f596f75206861766520616c726561647920766f74656400000000000000000000600082015250565b6000612b27601683611a5b565b9150612b3282612af1565b602082019050919050565b60006020820190508181036000830152612b5681612b1a565b9050919050565b7f4e487b7100000000000000000000000000000000000000000000000000000000600052601160045260246000fd5b6000612b97826119ed565b91507fffffffffffffffffffffffffffffffffffffffffffffffffffffffffffffffff8203612bc957612bc8612b5d565b5b600182019050919050565b6000606082019050612be96000830186611ae0565b612bf66020830185611ae0565b612c036040830184611ae0565b949350505050565b7f416c726561647920706175736564000000000000000000000000000000000000600082015250565b6000612c41600e83611a5b565b9150612c4c82612c0b565b602082019050919050565b60006020820190508181036000830152612c7081612c34565b9050919050565b7f4e6f2061637469766520766f74696e6720746f20706175736500000000000000600082015250565b6000612cad601983611a5b565b9150612cb882612c77565b602082019050919050565b60006020820190508181036000830152612cdc81612ca0565b9050919050565b6000612cee826119ed565b9150612cf9836119ed565b9250828203905081811115612d1157612d10612b5d565b5b92915050565b7f4e487b7100000000000000000000000000000000000000000000000000000000600052603160045260246000fdfea26469706673582212208f07c4eed47b9ac78516b463bcdf1a951d9aad669479aebedb44cbbce57f38ef64736f6c634300081c0033",
  "linkReferences": {},
  "deployedLinkReferences": {}
}