{
  "_format": "hh-sol-artifact-1",
  "contractName": "Election",
  "sourceName": "contracts/Election.sol",
  "abi": [
    {
      "inputs": [],
      "stateMutability": "nonpayable",
      "type": "constructor"
    },
    {
      "anonymous": false,
      "inputs": [
        {
          "indexed": false,
          "internalType": "uint256",
          "name": "partyId",
          "type": "uint256"
        },
        {
          "indexed": false,
          "internalType": "string",
          "name": "partyName",
          "type": "string"
        }
      ],
      "name": "PartyAdded",
      "type": "event"
    },
    {
      "anonymous": false,
      "inputs": [
        {
          "indexed": false,
          "internalType": "uint256",
          "name": "stateId",
          "type": "uint256"
        },
        {
          "indexed": false,
          "internalType": "string",
          "name": "stateName",
          "type": "string"
        }
      ],
      "name": "StateAdded",
      "type": "event"
    },
    {
      "anonymous": false,
      "inputs": [
        {
          "indexed": false,
          "internalType": "string",
          "name": "voterId",
          "type": "string"
        },
        {
          "indexed": false,
          "internalType": "uint256",
          "name": "stateId",
          "type": "uint256"
        },
        {
          "indexed": false,
          "internalType": "uint256",
          "name": "partyId",
          "type": "uint256"
        }
      ],
      "name": "VoteCast",
      "type": "event"
    },
    {
      "anonymous": false,
      "inputs": [
        {
          "indexed": false,
          "internalType": "uint256",
          "name": "startTime",
          "type": "uint256"
        },
        {
          "indexed": false,
          "internalType": "uint256",
          "name": "endTime",
          "type": "uint256"
        }
      ],
      "name": "VotingTimesSet",
      "type": "event"
    },
    {
      "inputs": [
        {
          "internalType": "string",
          "name": "_name",
          "type": "string"
        },
        {
          "internalType": "string",
          "name": "_symbol",
          "type": "string"
        },
        {
          "internalType": "uint256",
          "name": "_partyId",
          "type": "uint256"
        }
      ],
      "name": "addParty",
      "outputs": [],
      "stateMutability": "nonpayable",
      "type": "function"
    },
    {
      "inputs": [
        {
          "internalType": "string",
          "name": "_stateName",
          "type": "string"
        },
        {
          "internalType": "uint256",
          "name": "_stateId",
          "type": "uint256"
        }
      ],
      "name": "addState",
      "outputs": [],
      "stateMutability": "nonpayable",
      "type": "function"
    },
    {
      "inputs": [
        {
          "internalType": "uint256",
          "name": "_partyId",
          "type": "uint256"
        }
      ],
      "name": "deleteParty",
      "outputs": [],
      "stateMutability": "nonpayable",
      "type": "function"
    },
    {
      "inputs": [
        {
          "internalType": "uint256",
          "name": "_stateId",
          "type": "uint256"
        }
      ],
      "name": "deleteState",
      "outputs": [],
      "stateMutability": "nonpayable",
      "type": "function"
    },
    {
      "inputs": [],
      "name": "electionAdmin",
      "outputs": [
        {
          "internalType": "address",
          "name": "",
          "type": "address"
        }
      ],
      "stateMutability": "view",
      "type": "function"
    },
    {
      "inputs": [
        {
          "internalType": "string",
          "name": "_hashedFaydaId",
          "type": "string"
        }
      ],
      "name": "getAllData",
      "outputs": [
        {
          "components": [
            {
              "internalType": "string",
              "name": "stateName",
              "type": "string"
            },
            {
              "internalType": "uint256",
              "name": "stateId",
              "type": "uint256"
            }
          ],
          "internalType": "struct Election.State[]",
          "name": "",
          "type": "tuple[]"
        },
        {
          "components": [
            {
              "internalType": "string",
              "name": "partyName",
              "type": "string"
            },
            {
              "internalType": "string",
              "name": "symbol",
              "type": "string"
            },
            {
              "internalType": "uint256",
              "name": "partyId",
              "type": "uint256"
            },
            {
              "components": [
                {
                  "internalType": "uint256",
                  "name": "stateId",
                  "type": "uint256"
                },
                {
                  "internalType": "uint256",
                  "name": "votes",
                  "type": "uint256"
                }
              ],
              "internalType": "struct Election.StateVote[]",
              "name": "stateVotes",
              "type": "tuple[]"
            }
          ],
          "internalType": "struct Election.PartyView[]",
          "name": "",
          "type": "tuple[]"
        },
        {
          "internalType": "bool",
          "name": "",
          "type": "bool"
        },
        {
          "internalType": "bool",
          "name": "",
          "type": "bool"
        },
        {
          "internalType": "bool",
          "name": "",
          "type": "bool"
        },
        {
          "internalType": "uint256",
          "name": "",
          "type": "uint256"
        },
        {
          "internalType": "uint256",
          "name": "",
          "type": "uint256"
        }
      ],
      "stateMutability": "view",
      "type": "function"
    },
    {
      "inputs": [],
      "name": "getAllParties",
      "outputs": [
        {
          "components": [
            {
              "internalType": "string",
              "name": "partyName",
              "type": "string"
            },
            {
              "internalType": "string",
              "name": "symbol",
              "type": "string"
            },
            {
              "internalType": "uint256",
              "name": "partyId",
              "type": "uint256"
            },
            {
              "components": [
                {
                  "internalType": "uint256",
                  "name": "stateId",
                  "type": "uint256"
                },
                {
                  "internalType": "uint256",
                  "name": "votes",
                  "type": "uint256"
                }
              ],
              "internalType": "struct Election.StateVote[]",
              "name": "stateVotes",
              "type": "tuple[]"
            }
          ],
          "internalType": "struct Election.PartyView[]",
          "name": "",
          "type": "tuple[]"
        }
      ],
      "stateMutability": "view",
      "type": "function"
    },
    {
      "inputs": [],
      "name": "getAllStates",
      "outputs": [
        {
          "components": [
            {
              "internalType": "string",
              "name": "stateName",
              "type": "string"
            },
            {
              "internalType": "uint256",
              "name": "stateId",
              "type": "uint256"
            }
          ],
          "internalType": "struct Election.State[]",
          "name": "",
          "type": "tuple[]"
        }
      ],
      "stateMutability": "view",
      "type": "function"
    },
    {
      "inputs": [
        {
          "internalType": "string",
          "name": "_hashedFaydaId",
          "type": "string"
        }
      ],
      "name": "hasUserVoted",
      "outputs": [
        {
          "internalType": "bool",
          "name": "",
          "type": "bool"
        }
      ],
      "stateMutability": "view",
      "type": "function"
    },
    {
      "inputs": [],
      "name": "isVotingActive",
      "outputs": [
        {
          "internalType": "bool",
          "name": "",
          "type": "bool"
        }
      ],
      "stateMutability": "view",
      "type": "function"
    },
    {
      "inputs": [
        {
          "internalType": "uint256",
          "name": "",
          "type": "uint256"
        }
      ],
      "name": "partyIds",
      "outputs": [
        {
          "internalType": "uint256",
          "name": "",
          "type": "uint256"
        }
      ],
      "stateMutability": "view",
      "type": "function"
    },
    {
      "inputs": [],
      "name": "pauseVoting",
      "outputs": [],
      "stateMutability": "nonpayable",
      "type": "function"
    },
    {
      "inputs": [],
      "name": "resumeVoting",
      "outputs": [],
      "stateMutability": "nonpayable",
      "type": "function"
    },
    {
      "inputs": [
        {
          "internalType": "uint256",
          "name": "_startTime",
          "type": "uint256"
        },
        {
          "internalType": "uint256",
          "name": "_endTime",
          "type": "uint256"
        }
      ],
      "name": "setVotingTimes",
      "outputs": [],
      "stateMutability": "nonpayable",
      "type": "function"
    },
    {
      "inputs": [
        {
          "internalType": "uint256",
          "name": "",
          "type": "uint256"
        }
      ],
      "name": "stateIds",
      "outputs": [
        {
          "internalType": "uint256",
          "name": "",
          "type": "uint256"
        }
      ],
      "stateMutability": "view",
      "type": "function"
    },
    {
      "inputs": [
        {
          "internalType": "uint256",
          "name": "",
          "type": "uint256"
        }
      ],
      "name": "states",
      "outputs": [
        {
          "internalType": "string",
          "name": "stateName",
          "type": "string"
        },
        {
          "internalType": "uint256",
          "name": "stateId",
          "type": "uint256"
        }
      ],
      "stateMutability": "view",
      "type": "function"
    },
    {
      "inputs": [],
      "name": "timeData",
      "outputs": [
        {
          "internalType": "bool",
          "name": "",
          "type": "bool"
        },
        {
          "internalType": "uint256",
          "name": "",
          "type": "uint256"
        },
        {
          "internalType": "uint256",
          "name": "",
          "type": "uint256"
        }
      ],
      "stateMutability": "view",
      "type": "function"
    },
    {
      "inputs": [
        {
          "internalType": "address",
          "name": "newOwner",
          "type": "address"
        }
      ],
      "name": "transferOwnership",
      "outputs": [],
      "stateMutability": "nonpayable",
      "type": "function"
    },
    {
      "inputs": [
        {
          "internalType": "string",
          "name": "_hashedFaydaId",
          "type": "string"
        },
        {
          "internalType": "uint256",
          "name": "_voterState",
          "type": "uint256"
        },
        {
          "internalType": "uint256",
          "name": "_votedPartyId",
          "type": "uint256"
        }
      ],
      "name": "vote",
      "outputs": [],
      "stateMutability": "nonpayable",
      "type": "function"
    },
    {
      "inputs": [
        {
          "internalType": "string",
          "name": "",
          "type": "string"
        }
      ],
      "name": "voters",
      "outputs": [
        {
          "internalType": "bool",
          "name": "",
          "type": "bool"
        }
      ],
      "stateMutability": "view",
      "type": "function"
    },
    {
      "inputs": [],
      "name": "votingEndTime",
      "outputs": [
        {
          "internalType": "uint256",
          "name": "",
          "type": "uint256"
        }
      ],
      "stateMutability": "view",
      "type": "function"
    },
    {
      "inputs": [],
      "name": "votingPaused",
      "outputs": [
        {
          "internalType": "bool",
          "name": "",
          "type": "bool"
        }
      ],
      "stateMutability": "view",
      "type": "function"
    },
    {
      "inputs": [],
      "name": "votingStartTime",
      "outputs": [
        {
          "internalType": "uint256",
          "name": "",
          "type": "uint256"
        }
      ],
      "stateMutability": "view",
      "type": "function"
    }
  ],
  "bytecode": "0x6080604052348015600f57600080fd5b50336000806101000a81548173ffffffffffffffffffffffffffffffffffffffff021916908373ffffffffffffffffffffffffffffffffffffffff160217905550612e188061005f6000396000f3fe608060405234801561001057600080fd5b506004361061014d5760003560e01c80635c060b79116100c3578063a2d446321161007c578063a2d4463214610393578063a4ddb071146103c3578063ae66c9ea146103e1578063b867bfcc146103ff578063f2fde38b1461041d578063f3cdcd1e146104395761014d565b80635c060b79146102df57806376290dd2146102fb5780637afdf93e146103175780637d2e629e14610321578063939fa3221461033d578063a0e43959146103735761014d565b80632019a608116101155780632019a608146101f7578063257da3ef1461021557806337eb39061461024557806347cf6f76146102615780634f6c90cf1461027f57806353fa2e64146102af5761014d565b8063017a9105146101525780630891d358146101835780630aa056771461019f5780630fc49ddd146101bd5780631ea736e0146101d9575b600080fd5b61016c600480360381019061016791906119f8565b610443565b60405161017a929190611ac4565b60405180910390f35b61019d60048036038101906101989190611c29565b6104ef565b005b6101a7610776565b6040516101b49190611cd9565b60405180910390f35b6101d760048036038101906101d291906119f8565b61079a565b005b6101e16108d9565b6040516101ee9190611cf4565b60405180910390f35b6101ff6108df565b60405161020c9190611cf4565b60405180910390f35b61022f600480360381019061022a91906119f8565b6108e5565b60405161023c9190611cf4565b60405180910390f35b61025f600480360381019061025a91906119f8565b610909565b005b610269610a9f565b6040516102769190611d2a565b60405180910390f35b610299600480360381019061029491906119f8565b610aba565b6040516102a69190611cf4565b60405180910390f35b6102c960048036038101906102c49190611d45565b610ade565b6040516102d69190611d2a565b60405180910390f35b6102f960048036038101906102f49190611d8e565b610b14565b005b61031560048036038101906103109190611dea565b610cb8565b005b61031f610e57565b005b61033b60048036038101906103369190611e75565b610f51565b005b61035760048036038101906103529190611d45565b6110ae565b60405161036a979695949392919061221e565b60405180910390f35b61037b611109565b60405161038a9392919061229b565b60405180910390f35b6103ad60048036038101906103a89190611d45565b611127565b6040516103ba9190611d2a565b60405180910390f35b6103cb61115c565b6040516103d891906122d2565b60405180910390f35b6103e961116b565b6040516103f69190611d2a565b60405180910390f35b61040761117e565b60405161041491906122f4565b60405180910390f35b61043760048036038101906104329190612342565b61118d565b005b61044161125e565b005b60076020528060005260406000206000915090508060000180546104669061239e565b80601f01602080910402602001604051908101604052809291908181526020018280546104929061239e565b80156104df5780601f106104b4576101008083540402835291602001916104df565b820191906000526020600020905b8154815290600101906020018083116104c257829003601f168201915b5050505050908060010154905082565b600360009054906101000a900460ff161561053f576040517f08c379a00000000000000000000000000000000000000000000000000000000081526004016105369061241b565b60405180910390fd5b610547610a9f565b610586576040517f08c379a000000000000000000000000000000000000000000000000000000000815260040161057d90612487565b60405180910390fd5b60088360405161059691906124e3565b908152602001604051809103902060009054906101000a900460ff16156105f2576040517f08c379a00000000000000000000000000000000000000000000000000000000081526004016105e990612546565b60405180910390fd5b60006006600083815260200190815260200160002060000180546106159061239e565b905003610657576040517f08c379a000000000000000000000000000000000000000000000000000000000815260040161064e906125b2565b60405180910390fd5b600060076000848152602001908152602001600020600001805461067a9061239e565b9050036106bc576040517f08c379a00000000000000000000000000000000000000000000000000000000081526004016106b39061261e565b60405180910390fd5b600060066000838152602001908152602001600020905080600301600084815260200190815260200160002060008154809291906106f99061266d565b9190505550600160088560405161071091906124e3565b908152602001604051809103902060006101000a81548160ff0219169083151502179055507fd0de2208ecba921aeb61118323ba6f9adb7b6f2c3cc88448e4bceca97de56014848484604051610768939291906126b5565b60405180910390a150505050565b60008054906101000a900473ffffffffffffffffffffffffffffffffffffffff1681565b60008054906101000a900473ffffffffffffffffffffffffffffffffffffffff1673ffffffffffffffffffffffffffffffffffffffff163373ffffffffffffffffffffffffffffffffffffffff1614610828576040517f08c379a000000000000000000000000000000000000000000000000000000000815260040161081f9061273f565b60405180910390fd5b600060066000838152602001908152602001600020600001805461084b9061239e565b90500361088d576040517f08c379a0000000000000000000000000000000000000000000000000000000008152600401610884906125b2565b60405180910390fd5b6108986004826113a0565b60066000828152602001908152602001600020600080820160006108bc91906118f5565b6001820160006108cc91906118f5565b6002820160009055505050565b60025481565b60015481565b600581815481106108f557600080fd5b906000526020600020016000915090505481565b60008054906101000a900473ffffffffffffffffffffffffffffffffffffffff1673ffffffffffffffffffffffffffffffffffffffff163373ffffffffffffffffffffffffffffffffffffffff1614610997576040517f08c379a000000000000000000000000000000000000000000000000000000000815260040161098e9061273f565b60405180910390fd5b60006007600083815260200190815260200160002060000180546109ba9061239e565b9050036109fc576040517f08c379a00000000000000000000000000000000000000000000000000000000081526004016109f39061261e565b60405180910390fd5b610a076005826113a0565b60005b600480549050811015610a6d576006600060048381548110610a2f57610a2e61275f565b5b906000526020600020015481526020019081526020016000206003016000838152602001908152602001600020600090558080600101915050610a0a565b506007600082815260200190815260200160002060008082016000610a9291906118f5565b6001820160009055505050565b60006001544210158015610ab557506002544211155b905090565b60048181548110610aca57600080fd5b906000526020600020016000915090505481565b6008818051602081018201805184825260208301602085012081835280955050505050506000915054906101000a900460ff1681565b60008054906101000a900473ffffffffffffffffffffffffffffffffffffffff1673ffffffffffffffffffffffffffffffffffffffff163373ffffffffffffffffffffffffffffffffffffffff1614610ba2576040517f08c379a0000000000000000000000000000000000000000000000000000000008152600401610b999061273f565b60405180910390fd5b6000600760008381526020019081526020016000206000018054610bc59061239e565b905014610c07576040517f08c379a0000000000000000000000000000000000000000000000000000000008152600401610bfe906127da565b60405180910390fd5b604051806040016040528083815260200182815250600760008381526020019081526020016000206000820151816000019081610c4491906129a6565b506020820151816001015590505060058190806001815401808255809150506001900390600052602060002001600090919091909150557faadc2cb898f9a2188d51488b9e24dfa12e85a315c886710a0d2b326f0b06d8cf8183604051610cac929190612a78565b60405180910390a15050565b60008054906101000a900473ffffffffffffffffffffffffffffffffffffffff1673ffffffffffffffffffffffffffffffffffffffff163373ffffffffffffffffffffffffffffffffffffffff1614610d46576040517f08c379a0000000000000000000000000000000000000000000000000000000008152600401610d3d9061273f565b60405180910390fd5b6000600660008381526020019081526020016000206000018054610d699061239e565b905014610dab576040517f08c379a0000000000000000000000000000000000000000000000000000000008152600401610da290612af4565b60405180910390fd5b600060066000838152602001908152602001600020905083816000019081610dd391906129a6565b5082816001019081610de591906129a6565b5081816002018190555060048290806001815401808255809150506001900390600052602060002001600090919091909150557f54e9cb5ebe49e5aa1476cef7c5abac9af1cffc245b2a6403e531976361e3d59a8285604051610e49929190612a78565b60405180910390a150505050565b60008054906101000a900473ffffffffffffffffffffffffffffffffffffffff1673ffffffffffffffffffffffffffffffffffffffff163373ffffffffffffffffffffffffffffffffffffffff1614610ee5576040517f08c379a0000000000000000000000000000000000000000000000000000000008152600401610edc9061273f565b60405180910390fd5b600360009054906101000a900460ff16610f34576040517f08c379a0000000000000000000000000000000000000000000000000000000008152600401610f2b90612b60565b60405180910390fd5b6000600360006101000a81548160ff021916908315150217905550565b60008054906101000a900473ffffffffffffffffffffffffffffffffffffffff1673ffffffffffffffffffffffffffffffffffffffff163373ffffffffffffffffffffffffffffffffffffffff1614610fdf576040517f08c379a0000000000000000000000000000000000000000000000000000000008152600401610fd69061273f565b60405180910390fd5b428211611021576040517f08c379a000000000000000000000000000000000000000000000000000000000815260040161101890612bcc565b60405180910390fd5b818111611063576040517f08c379a000000000000000000000000000000000000000000000000000000000815260040161105a90612c5e565b60405180910390fd5b81600181905550806002819055507f9160758ad24f87673a8c4eebb5b93702ffbcd3115c965f0e772f5a9922247f8082826040516110a2929190612c7e565b60405180910390a15050565b60608060008060008060006110c1611460565b6110c96115da565b600360009054906101000a900460ff166110e1610a9f565b6110ea8c611127565b6001546002549650965096509650965096509650919395979092949650565b6000806000611116610a9f565b600154600254925092509250909192565b600060088260405161113991906124e3565b908152602001604051809103902060009054906101000a900460ff169050919050565b6060611166611460565b905090565b600360009054906101000a900460ff1681565b60606111886115da565b905090565b60008054906101000a900473ffffffffffffffffffffffffffffffffffffffff1673ffffffffffffffffffffffffffffffffffffffff163373ffffffffffffffffffffffffffffffffffffffff161461121b576040517f08c379a00000000000000000000000000000000000000000000000000000000081526004016112129061273f565b60405180910390fd5b806000806101000a81548173ffffffffffffffffffffffffffffffffffffffff021916908373ffffffffffffffffffffffffffffffffffffffff16021790555050565b60008054906101000a900473ffffffffffffffffffffffffffffffffffffffff1673ffffffffffffffffffffffffffffffffffffffff163373ffffffffffffffffffffffffffffffffffffffff16146112ec576040517f08c379a00000000000000000000000000000000000000000000000000000000081526004016112e39061273f565b60405180910390fd5b600360009054906101000a900460ff161561133c576040517f08c379a000000000000000000000000000000000000000000000000000000000815260040161133390612cf3565b60405180910390fd5b611344610a9f565b611383576040517f08c379a000000000000000000000000000000000000000000000000000000000815260040161137a90612d5f565b60405180910390fd5b6001600360006101000a81548160ff021916908315150217905550565b60005b828054905081101561145b57818382815481106113c3576113c261275f565b5b90600052602060002001540361144e5782600184805490506113e59190612d7f565b815481106113f6576113f561275f565b5b90600052602060002001548382815481106114145761141361275f565b5b90600052602060002001819055508280548061143357611432612db3565b5b6001900381819060005260206000200160009055905561145b565b80806001019150506113a3565b505050565b6060600060058054905067ffffffffffffffff81111561148357611482611afe565b5b6040519080825280602002602001820160405280156114bc57816020015b6114a9611935565b8152602001906001900390816114a15790505b50905060005b6005805490508110156115d25760076000600583815481106114e7576114e661275f565b5b9060005260206000200154815260200190815260200160002060405180604001604052908160008201805461151b9061239e565b80601f01602080910402602001604051908101604052809291908181526020018280546115479061239e565b80156115945780601f1061156957610100808354040283529160200191611594565b820191906000526020600020905b81548152906001019060200180831161157757829003601f168201915b505050505081526020016001820154815250508282815181106115ba576115b961275f565b5b602002602001018190525080806001019150506114c2565b508091505090565b6060600060048054905067ffffffffffffffff8111156115fd576115fc611afe565b5b60405190808252806020026020018201604052801561163657816020015b61162361194f565b81526020019060019003908161161b5790505b50905060005b6004805490508110156118ed5760006004828154811061165f5761165e61275f565b5b906000526020600020015490506000600660008381526020019081526020016000209050600060058054905067ffffffffffffffff8111156116a4576116a3611afe565b5b6040519080825280602002602001820160405280156116dd57816020015b6116ca611977565b8152602001906001900390816116c25790505b50905060005b6005805490508110156117815760405180604001604052806005838154811061170f5761170e61275f565b5b90600052602060002001548152602001846003016000600585815481106117395761173861275f565b5b90600052602060002001548152602001908152602001600020548152508282815181106117695761176861275f565b5b602002602001018190525080806001019150506116e3565b50604051806080016040528083600001805461179c9061239e565b80601f01602080910402602001604051908101604052809291908181526020018280546117c89061239e565b80156118155780601f106117ea57610100808354040283529160200191611815565b820191906000526020600020905b8154815290600101906020018083116117f857829003601f168201915b5050505050815260200183600101805461182e9061239e565b80601f016020809104026020016040519081016040528092919081815260200182805461185a9061239e565b80156118a75780601f1061187c576101008083540402835291602001916118a7565b820191906000526020600020905b81548152906001019060200180831161188a57829003601f168201915b5050505050815260200183600201548152602001828152508585815181106118d2576118d161275f565b5b6020026020010181905250505050808060010191505061163c565b508091505090565b5080546119019061239e565b6000825580601f106119135750611932565b601f0160209004906000526020600020908101906119319190611991565b5b50565b604051806040016040528060608152602001600081525090565b6040518060800160405280606081526020016060815260200160008152602001606081525090565b604051806040016040528060008152602001600081525090565b5b808211156119aa576000816000905550600101611992565b5090565b6000604051905090565b600080fd5b600080fd5b6000819050919050565b6119d5816119c2565b81146119e057600080fd5b50565b6000813590506119f2816119cc565b92915050565b600060208284031215611a0e57611a0d6119b8565b5b6000611a1c848285016119e3565b91505092915050565b600081519050919050565b600082825260208201905092915050565b60005b83811015611a5f578082015181840152602081019050611a44565b60008484015250505050565b6000601f19601f8301169050919050565b6000611a8782611a25565b611a918185611a30565b9350611aa1818560208601611a41565b611aaa81611a6b565b840191505092915050565b611abe816119c2565b82525050565b60006040820190508181036000830152611ade8185611a7c565b9050611aed6020830184611ab5565b9392505050565b600080fd5b600080fd5b7f4e487b7100000000000000000000000000000000000000000000000000000000600052604160045260246000fd5b611b3682611a6b565b810181811067ffffffffffffffff82111715611b5557611b54611afe565b5b80604052505050565b6000611b686119ae565b9050611b748282611b2d565b919050565b600067ffffffffffffffff821115611b9457611b93611afe565b5b611b9d82611a6b565b9050602081019050919050565b82818337600083830152505050565b6000611bcc611bc784611b79565b611b5e565b905082815260208101848484011115611be857611be7611af9565b5b611bf3848285611baa565b509392505050565b600082601f830112611c1057611c0f611af4565b5b8135611c20848260208601611bb9565b91505092915050565b600080600060608486031215611c4257611c416119b8565b5b600084013567ffffffffffffffff811115611c6057611c5f6119bd565b5b611c6c86828701611bfb565b9350506020611c7d868287016119e3565b9250506040611c8e868287016119e3565b9150509250925092565b600073ffffffffffffffffffffffffffffffffffffffff82169050919050565b6000611cc382611c98565b9050919050565b611cd381611cb8565b82525050565b6000602082019050611cee6000830184611cca565b92915050565b6000602082019050611d096000830184611ab5565b92915050565b60008115159050919050565b611d2481611d0f565b82525050565b6000602082019050611d3f6000830184611d1b565b92915050565b600060208284031215611d5b57611d5a6119b8565b5b600082013567ffffffffffffffff811115611d7957611d786119bd565b5b611d8584828501611bfb565b91505092915050565b60008060408385031215611da557611da46119b8565b5b600083013567ffffffffffffffff811115611dc357611dc26119bd565b5b611dcf85828601611bfb565b9250506020611de0858286016119e3565b9150509250929050565b600080600060608486031215611e0357611e026119b8565b5b600084013567ffffffffffffffff811115611e2157611e206119bd565b5b611e2d86828701611bfb565b935050602084013567ffffffffffffffff811115611e4e57611e4d6119bd565b5b611e5a86828701611bfb565b9250506040611e6b868287016119e3565b9150509250925092565b60008060408385031215611e8c57611e8b6119b8565b5b6000611e9a858286016119e3565b9250506020611eab858286016119e3565b9150509250929050565b600081519050919050565b600082825260208201905092915050565b6000819050602082019050919050565b600082825260208201905092915050565b6000611efd82611a25565b611f078185611ee1565b9350611f17818560208601611a41565b611f2081611a6b565b840191505092915050565b611f34816119c2565b82525050565b60006040830160008301518482036000860152611f578282611ef2565b9150506020830151611f6c6020860182611f2b565b508091505092915050565b6000611f838383611f3a565b905092915050565b6000602082019050919050565b6000611fa382611eb5565b611fad8185611ec0565b935083602082028501611fbf85611ed1565b8060005b85811015611ffb5784840389528151611fdc8582611f77565b9450611fe783611f8b565b925060208a01995050600181019050611fc3565b50829750879550505050505092915050565b600081519050919050565b600082825260208201905092915050565b6000819050602082019050919050565b600081519050919050565b600082825260208201905092915050565b6000819050602082019050919050565b60408201600082015161207b6000850182611f2b565b50602082015161208e6020850182611f2b565b50505050565b60006120a08383612065565b60408301905092915050565b6000602082019050919050565b60006120c482612039565b6120ce8185612044565b93506120d983612055565b8060005b8381101561210a5781516120f18882612094565b97506120fc836120ac565b9250506001810190506120dd565b5085935050505092915050565b600060808301600083015184820360008601526121348282611ef2565b9150506020830151848203602086015261214e8282611ef2565b91505060408301516121636040860182611f2b565b506060830151848203606086015261217b82826120b9565b9150508091505092915050565b60006121948383612117565b905092915050565b6000602082019050919050565b60006121b48261200d565b6121be8185612018565b9350836020820285016121d085612029565b8060005b8581101561220c57848403895281516121ed8582612188565b94506121f88361219c565b925060208a019950506001810190506121d4565b50829750879550505050505092915050565b600060e0820190508181036000830152612238818a611f98565b9050818103602083015261224c81896121a9565b905061225b6040830188611d1b565b6122686060830187611d1b565b6122756080830186611d1b565b61228260a0830185611ab5565b61228f60c0830184611ab5565b98975050505050505050565b60006060820190506122b06000830186611d1b565b6122bd6020830185611ab5565b6122ca6040830184611ab5565b949350505050565b600060208201905081810360008301526122ec8184611f98565b905092915050565b6000602082019050818103600083015261230e81846121a9565b905092915050565b61231f81611cb8565b811461232a57600080fd5b50565b60008135905061233c81612316565b92915050565b600060208284031215612358576123576119b8565b5b60006123668482850161232d565b91505092915050565b7f4e487b7100000000000000000000000000000000000000000000000000000000600052602260045260246000fd5b600060028204905060018216806123b657607f821691505b6020821081036123c9576123c861236f565b5b50919050565b7f566f74696e672070617573656400000000000000000000000000000000000000600082015250565b6000612405600d83611a30565b9150612410826123cf565b602082019050919050565b60006020820190508181036000830152612434816123f8565b9050919050565b7f566f74696e67206e6f7420616374697665000000000000000000000000000000600082015250565b6000612471601183611a30565b915061247c8261243b565b602082019050919050565b600060208201905081810360008301526124a081612464565b9050919050565b600081905092915050565b60006124bd82611a25565b6124c781856124a7565b93506124d7818560208601611a41565b80840191505092915050565b60006124ef82846124b2565b915081905092915050565b7f596f75206861766520616c726561647920766f74656400000000000000000000600082015250565b6000612530601683611a30565b915061253b826124fa565b602082019050919050565b6000602082019050818103600083015261255f81612523565b9050919050565b7f506172747920646f6573206e6f74206578697374000000000000000000000000600082015250565b600061259c601483611a30565b91506125a782612566565b602082019050919050565b600060208201905081810360008301526125cb8161258f565b9050919050565b7f537461746520646f6573206e6f74206578697374000000000000000000000000600082015250565b6000612608601483611a30565b9150612613826125d2565b602082019050919050565b60006020820190508181036000830152612637816125fb565b9050919050565b7f4e487b7100000000000000000000000000000000000000000000000000000000600052601160045260246000fd5b6000612678826119c2565b91507fffffffffffffffffffffffffffffffffffffffffffffffffffffffffffffffff82036126aa576126a961263e565b5b600182019050919050565b600060608201905081810360008301526126cf8186611a7c565b90506126de6020830185611ab5565b6126eb6040830184611ab5565b949350505050565b7f4e6f7420617574686f72697a6564000000000000000000000000000000000000600082015250565b6000612729600e83611a30565b9150612734826126f3565b602082019050919050565b600060208201905081810360008301526127588161271c565b9050919050565b7f4e487b7100000000000000000000000000000000000000000000000000000000600052603260045260246000fd5b7f5374617465204944206578697374730000000000000000000000000000000000600082015250565b60006127c4600f83611a30565b91506127cf8261278e565b602082019050919050565b600060208201905081810360008301526127f3816127b7565b9050919050565b60008190508160005260206000209050919050565b60006020601f8301049050919050565b600082821b905092915050565b60006008830261285c7fffffffffffffffffffffffffffffffffffffffffffffffffffffffffffffffff8261281f565b612866868361281f565b95508019841693508086168417925050509392505050565b6000819050919050565b60006128a361289e612899846119c2565b61287e565b6119c2565b9050919050565b6000819050919050565b6128bd83612888565b6128d16128c9826128aa565b84845461282c565b825550505050565b600090565b6128e66128d9565b6128f18184846128b4565b505050565b5b818110156129155761290a6000826128de565b6001810190506128f7565b5050565b601f82111561295a5761292b816127fa565b6129348461280f565b81016020851015612943578190505b61295761294f8561280f565b8301826128f6565b50505b505050565b600082821c905092915050565b600061297d6000198460080261295f565b1980831691505092915050565b6000612996838361296c565b9150826002028217905092915050565b6129af82611a25565b67ffffffffffffffff8111156129c8576129c7611afe565b5b6129d2825461239e565b6129dd828285612919565b600060209050601f831160018114612a1057600084156129fe578287015190505b612a08858261298a565b865550612a70565b601f198416612a1e866127fa565b60005b82811015612a4657848901518255600182019150602085019450602081019050612a21565b86831015612a635784890151612a5f601f89168261296c565b8355505b6001600288020188555050505b505050505050565b6000604082019050612a8d6000830185611ab5565b8181036020830152612a9f8184611a7c565b90509392505050565b7f5061727479204944206578697374730000000000000000000000000000000000600082015250565b6000612ade600f83611a30565b9150612ae982612aa8565b602082019050919050565b60006020820190508181036000830152612b0d81612ad1565b9050919050565b7f4e6f742070617573656400000000000000000000000000000000000000000000600082015250565b6000612b4a600a83611a30565b9150612b5582612b14565b602082019050919050565b60006020820190508181036000830152612b7981612b3d565b9050919050565b7f53746172742074696d65206d75737420626520696e2066757475726500000000600082015250565b6000612bb6601c83611a30565b9150612bc182612b80565b602082019050919050565b60006020820190508181036000830152612be581612ba9565b9050919050565b7f456e642074696d65206d7573742062652061667465722073746172742074696d60008201527f6500000000000000000000000000000000000000000000000000000000000000602082015250565b6000612c48602183611a30565b9150612c5382612bec565b604082019050919050565b60006020820190508181036000830152612c7781612c3b565b9050919050565b6000604082019050612c936000830185611ab5565b612ca06020830184611ab5565b9392505050565b7f416c726561647920706175736564000000000000000000000000000000000000600082015250565b6000612cdd600e83611a30565b9150612ce882612ca7565b602082019050919050565b60006020820190508181036000830152612d0c81612cd0565b9050919050565b7f4e6f2061637469766520766f74696e6720746f20706175736500000000000000600082015250565b6000612d49601983611a30565b9150612d5482612d13565b602082019050919050565b60006020820190508181036000830152612d7881612d3c565b9050919050565b6000612d8a826119c2565b9150612d95836119c2565b9250828203905081811115612dad57612dac61263e565b5b92915050565b7f4e487b7100000000000000000000000000000000000000000000000000000000600052603160045260246000fdfea2646970667358221220d80175a6444df3835990b061e59a791f2c341d327806b12c8bf5f696733ee00c64736f6c634300081c0033",
  "linkReferences": {},
  "deployedLinkReferences": {}
}